:100000000C942A000C9447000C9447000C94470071
:100010000C9447000C9447000C9447000C94470044
:100020000C9447000C9447000C9447000C94470034
:100030000C9447000C9447000C9447000C94470024
:100040000C9447000C9447000C9447000C94470014
:100050000C94470011241FBECFE5D8E0DEBFCDBF12
:1000600010E0A0E6B0E0E8E4F1E302C005900D92F4
:10007000A23AB107D9F711E0A2EAB0E001C01D929F
:10008000AB30B107E1F70E94F2170C94A2180C9460
:100090000000EF92FF920F931F937B018C0120E0F1
:1000A00030E040E05FE40E94490388238CF0C801FF
:1000B000B70120E030E040E05FE40E94C1010E940F
:1000C000A9039B01AC01205030404040504806C07D
:1000D000C801B7010E94A9039B01AC01B901CA0183
:1000E0001F910F91FF90EF900895A0E0B0E0EBE733
:1000F000F0E00C946B18DC012B01FA019C9192301A
:1001000008F439C1EB018881823008F433C194309E
:1001100069F4843009F02FC111969C91119789815F
:10012000981709F428C1AAE6B0E025C1843009F483
:1001300021C18230A9F4923009F01DC19A01AD01AC
:1001400088E0EA010990AE01E90109929E0181501F
:10015000C1F7E201898111969C918923818308C1AD
:10016000923009F407C112962D903C901397EB0141
:100170008A819B811496AD90BD90CD90DC901797AD
:10018000EC80FD800E811F819101281B390BB90184
:1001900037FF04C066277727621B730B6032710537
:1001A0000CF061C0121613066CF537014801062EDB
:1001B00004C096948794779467940A94D2F721E0C8
:1001C00030E040E050E004C0220F331F441F551FB1
:1001D0006A95D2F721503040404050402E213F21B7
:1001E00040235123211531054105510521F021E01E
:1001F00030E040E050E079018A01E628F72808293C
:1002000019293CC0232BD1F1260E371E350146019A
:10021000062E04C096948794779467940A94D2F734
:1002200021E030E040E050E004C0220F331F441FC3
:10023000551F6A95D2F721503040404050402A2146
:100240003B214C215D21211531054105510521F04E
:1002500021E030E040E050E059016A01A628B728CB
:10026000C828D9280BC0821593052CF01C01AA249C
:10027000BB24650103C0EE24FF24870111969C91E5
:10028000D20111968C91981709F445C0992339F041
:10029000A80197012A193B094C095D0906C0A6016E
:1002A00095012E193F09400B510B57FD08C01182D3
:1002B0003382228224833583468357831DC081E0A5
:1002C00081833382228288279927DC01821B930B4A
:1002D000A40BB50B84839583A683B7830DC0220F2F
:1002E000331F441F551F24833583468357838281E0
:1002F000938101979383828324813581468157813D
:10030000DA01C9010197A109B1098F5F9F4FAF4F72
:10031000BF4328F30BC0918333822282EA0CFB1C7B
:100320000C1D1D1DE482F5820683178383E0808304
:10033000248135814681578157FF1AC0C901AA27F8
:1003400097FDA095BA2F81709070A070B0705695EF
:10035000479537952795822B932BA42BB52B848318
:100360009583A683B7838281938101969383828349
:10037000DF0101C0D201CD01CDB7DEB7E2E10C94BF
:100380008718A0E2B0E0E7ECF1E00C9477186983FD
:100390007A838B839C832D833E834F835887E9E048
:1003A000EE2EF12CEC0EFD1ECE010196B7010E943F
:1003B000D2048E010F5E1F4FCE010596B8010E9438
:1003C000D2048A8991E089278A8BC701B801AE01DE
:1003D000475E5F4F0E9475000E94FD03A096E6E015
:1003E0000C949318A0E2B0E0E8EFF1E00C947718D9
:1003F00069837A838B839C832D833E834F835887C5
:10040000F9E0EF2EF12CEC0EFD1ECE010196B701A6
:100410000E94D2048E010F5E1F4FCE010596B801D7
:100420000E94D204C701B801AE01475E5F4F0E942F
:1004300075000E94FD03A096E6E00C949318A0E2DC
:10044000B0E0E5E2F2E00C946B1869837A838B8369
:100450009C832D833E834F835887CE010196BE0136
:10046000675F7F4F0E94D204CE010596BE016F5E8A
:100470007F4F0E94D2049985923088F0898982301A
:10048000C8F0943019F4823051F404C0843029F457
:10049000923081F48AE690E0C6C0923049F420E0C0
:1004A0009A858A89981321E02A87CE010996BBC0D4
:1004B000823049F420E09A858A89981321E02A8BBA
:1004C000CE014196B0C02D843E844F8458886D88FB
:1004D0007E888F88988CEE24FF248701AA24BB2471
:1004E000650140E050E060E070E0E0E0F0E0C10174
:1004F00081709070892BE9F0E60CF71C081D191D1E
:100500009A01AB012A0D3B1D4C1D5D1D80E090E062
:10051000A0E0B0E0E614F7040805190520F481E036
:1005200090E0A0E0B0E0BA01A901480F591F6A1F8E
:100530007B1FAA0CBB1CCC1CDD1C97FE08C081E0F5
:1005400090E0A0E0B0E0A82AB92ACA2ADB2A3196B6
:10055000E032F10549F0660C771C881C991C569412
:10056000479437942794C3CFFA85EA892B893C892D
:100570008B859C85280F391F2E5F3F4F17C0CA01FE
:1005800081709070892B61F016950795F794E79428
:1005900080E090E0A0E0B0E8E82AF92A0A2B1B2BC3
:1005A00076956795579547952F5F3F4F77FDE7CF36
:1005B0000CC0440F551F661F771F17FD4160EE0CDE
:1005C000FF1C001F111F21503040403090E05907A0
:1005D00090E0690790E4790760F32B8F3C8FDB0193
:1005E000CA018F779070A070B07080349105A1051A
:1005F000B10561F447FD0AC0E114F10401051105DC
:1006000029F0405C5F4F6F4F7F4F40781A8EFE1786
:1006100011F081E08A8F4D8F5E8F6F8F78A383E01A
:10062000898FCE0149960E94FD03A096E2E10C94C9
:100630008718A8E1B0E0EFE1F3E00C947718698344
:100640007A838B839C832D833E834F83588789E0F5
:10065000E82EF12CEC0EFD1ECE010196B7010E9492
:10066000D2048E010F5E1F4FCE010596B8010E9485
:10067000D2048985823040F08989823028F0C70110
:10068000B8010E944A0501C08FEF6896E6E00C941D
:100690009318A8E1B0E0EFE4F3E00C9477186983D5
:1006A0007A838B839C832D833E834F83588789E095
:1006B000E82EF12CEC0EFD1ECE010196B7010E9432
:1006C000D2048E010F5E1F4FCE010596B8010E9425
:1006D000D2048985823040F08989823028F0C701B0
:1006E000B8010E944A0501C08FEF6896E6E00C94BD
:1006F0009318A8E1B0E0EFE7F3E00C947718698372
:100700007A838B839C832D833E834F83588789E034
:10071000E82EF12CEC0EFD1ECE010196B7010E94D1
:10072000D2048E010F5E1F4FCE010596B8010E94C4
:10073000D2048985823040F08989823028F0C7014F
:10074000B8010E944A0501C081E06896E6E00C9479
:100750009318ACE0B0E0EFEAF3E00C947B18698307
:100760007A838B839C83CE010196BE016B5F7F4FA2
:100770000E94D2048D81823061F1823050F1843048
:1007800021F48E81882351F12EC02F81388537FDC9
:1007900020C06E812F3131051CF06623F9F023C093
:1007A0008EE190E0821B930B29853A854B855C8511
:1007B00004C056954795379527958A95D2F76623B5
:1007C000B1F050954095309521953F4F4F4F5F4F79
:1007D0000EC020E030E040E050E009C02FEF3FEFD6
:1007E0004FEF5FE704C020E030E040E050E8B9019F
:1007F000CA012C96E2E00C949718DF92EF92FF92D8
:100800000F931F93FC01E480F58006811781D1804E
:100810008081823048F480E090E0A0E1B0E0E82AF6
:10082000F92A0A2B1B2BA5C0843009F49FC0823003
:1008300021F4EE24FF24870105C0E114F104010531
:10084000110519F4E0E0F0E096C0628173819FEF3A
:10085000623879070CF05BC022E83FEF261B370BAC
:100860002A3131052CF020E030E040E050E02AC091
:10087000B801A701022E04C0769567955795479554
:100880000A94D2F781E090E0A0E0B0E004C0880FC5
:10089000991FAA1FBB1F2A95D2F70197A109B10979
:1008A0008E219F21A023B1230097A105B10521F03E
:1008B00081E090E0A0E0B0E09A01AB01282B392B59
:1008C0004A2B5B2BDA01C9018F779070A070B07052
:1008D00080349105A105B10539F427FF09C0205CDA
:1008E0003F4F4F4F5F4F04C0215C3F4F4F4F5F4F13
:1008F000E0E0F0E02030A0E03A07A0E04A07A0E402
:100900005A0710F0E1E0F0E079018A0127C0603871
:10091000710564F5FB01E158FF4FD801C7018F77DE
:100920009070A070B07080349105A105B10539F4C4
:10093000E7FE0DC080E490E0A0E0B0E004C08FE3EB
:1009400090E0A0E0B0E0E80EF91E0A1F1B1F17FFA1
:1009500005C016950795F794E794319687E01695AC
:100960000795F794E7948A95D1F705C0EE24FF2404
:100970008701EFEFF0E06E2F679566276795902F60
:100980009F77D794DD24D7948E2F8695492F462BB9
:10099000582F5D29B701CA011F910F91FF90EF9069
:1009A000DF900895FC01DB01408151812281622F9B
:1009B0006F7770E0221F2227221F9381892F880FD3
:1009C000822B282F30E0991F9927991F11969C930D
:1009D000119721153105A9F54115510561057105DD
:1009E00011F482E037C082E89FEF13969C938E93B8
:1009F00012979A01AB0167E0220F331F441F551F66
:100A00006A95D1F783E08C930DC0220F331F441FEA
:100A1000551F12968D919C911397019713969C9355
:100A20008E931297203080E0380780E0480780E4FA
:100A3000580758F314962D933D934D935C93179755
:100A400008952F3F310579F4411551056105710570
:100A500019F484E08C93089564FF03C081E08C93C3
:100A600012C01C9210C02F57304013963C932E9307
:100A7000129783E08C9387E0440F551F661F771F02
:100A80008A95D1F7706414964D935D936D937C9322
:100A9000179708951F93DC01FB019C91923008F495
:100AA00047C08081823008F443C0943051F41196DD
:100AB0001C91843099F58181682F70E0611B710968
:100AC0003FC0843021F0923031F48230B9F181811D
:100AD000882389F12DC011961C9111978230F1F075
:100AE00081811817D9F412962D913C911397828128
:100AF00093818217930794F028173907BCF0149656
:100B00008D919D910D90BC91A02D248135814681C0
:100B10005781281739074A075B0718F4112341F05A
:100B20000AC082179307A407B50740F4112319F0F0
:100B300061E070E005C06FEF7FEF02C060E070E041
:100B4000CB011F910895DF93CF93CDB7DEB70E94FD
:100B500062080E94EE110E941B17CF91DF91089549
:100B6000DF93CF9300D0CDB7DEB78A838A818983A4
:100B700012C08981282F30E08981882F90E0029669
:100B8000FC01EE55FF4F8081F901EE55FF4F808348
:100B900089818F5F8983909106018981981748F731
:100BA000809106018250809306010F900F90CF91A3
:100BB000DF910895DF93CF9300D0CDB7DEB71A82CF
:100BC00059C08A81882F90E0FC01EE55FF4F80814B
:100BD0008A3211F58A81882F90E09C0121503040A3
:100BE0008A81882F90E00197FC01EE55FF4F4081EC
:100BF0008A81882F90E00196FC01EE55FF4F80819D
:100C0000489F802D1124F901EE55FF4F80838A8182
:100C10000E94B0051A822BC08A81882F90E0FC01C7
:100C2000EE55FF4F80818F3211F58A81882F90E039
:100C30009C01215030408A81882F90E00197FC016F
:100C4000EE55FF4F40818A81882F90E00196FC018C
:100C5000EE55FF4F9081842F692F0E94FB17F901F9
:100C6000EE55FF4F80838A810E94B0051A828A81E7
:100C70008F5F8A83909106018A81981708F0A1CF2F
:100C8000198287C08981882F90E0FC01EE55FF4FC3
:100C900080818B3201F58981882F90E09C01215061
:100CA00030408981882F90E00197FC01EE55FF4F7D
:100CB00040818981882F90E00196FC01EE55FF4F1D
:100CC0008081840FF901EE55FF4F808389810E9456
:100CD000B00519825BC08981882F90E0FC01EE5538
:100CE000FF4F80818D3209F051C08981882F90E0BB
:100CF0000197FC01EE55FF4F20818981882F90E0FC
:100D00000196FC01EE55FF4F80812817F0F0898194
:100D1000882F90E09C01215030408981882F90E0FD
:100D20000197FC01EE55FF4F40818981882F90E0AB
:100D30000196FC01EE55FF4F8081942F981B892F5F
:100D4000F901EE55FF4F80831DC08981882F90E007
:100D50009C012F5F3F4F8981882F90E00196FC0115
:100D6000EE55FF4F40818981882F90E00197FC016B
:100D7000EE55FF4F8081942F981B892FF901EE5576
:100D8000FF4F808389810E94B005198289818F5F1E
:100D90008983909106018981981708F073CF0F908D
:100DA0000F90CF91DF910895DF93CF93CDB7DEB74A
:100DB0001092090110920A010E94161580910901F2
:100DC00090910A01692F0E94201580E690E00E9410
:100DD000581580E069E00E94201580910601882F57
:100DE00090E0FC01EE55FF4F8081882F90E0A0E05D
:100DF000B0E020E432E44FE050E0BC01CD010E94BD
:100E00002E18DA01C901805D0E944B158091060100
:100E1000882F90E0FC01EE55FF4F8081882F90E0F5
:100E2000A0E0B0E020E432E44FE050E0BC01CD01AE
:100E30000E942E18DC01CB0120EA36E841E050E0A8
:100E4000BC01CD010E942E18DA01C901805D0E940B
:100E50004B1580910601882F90E0FC01EE55FF4F65
:100E60008081882F90E0A0E0B0E020EA36E841E001
:100E700050E0BC01CD010E942E18DC01CB0120E125
:100E800037E240E050E0BC01CD010E942E18DA01AB
:100E9000C901805D0E944B1580910601882F90E06A
:100EA000FC01EE55FF4F8081882F90E020E137E272
:100EB000B9010E941B1828EE33E0B9010E941B18EB
:100EC000CB01805D0E944B1580910601882F90E038
:100ED000FC01EE55FF4F8081882F90E028EE33E033
:100EE000B9010E941B1824E630E0B9010E941B18CA
:100EF000CB01805D0E944B1580910601882F90E008
:100F0000FC01EE55FF4F808194E6692F0E94FB178C
:100F1000892F9AE0692F0E94FB17805D0E944B1574
:100F200080910601882F90E0FC01EE55FF4F8081F3
:100F30009AE0692F0E94FB17892F805D0E944B1554
:100F400081E080930801CF91DF910895DF93CF93E3
:100F50000F92CDB7DEB789838981805389838091D1
:100F60000601482F50E080910601882F90E0FC0197
:100F7000EE55FF4F8081882F90E09C01220F331F98
:100F8000C901880F991F880F991F820F931FFA01BB
:100F9000EE55FF4F808380910601282F30E080912D
:100FA0000601882F90E0FC01EE55FF4F908189816A
:100FB000890FF901EE55FF4F80830F90CF91DF919C
:100FC0000895DF93CF930F92CDB7DEB789838981E0
:100FD0008A3269F089818F3251F089818B3239F000
:100FE00089818D3221F089810E94A60713C08091EA
:100FF00006018F5F8093060180910601882F90E0A3
:10100000FC01EE55FF4F89818083809106018F5F3F
:10101000809306010F90CF91DF910895DF93CF93D6
:101020000F92CDB7DEB70E943117809307018091F0
:101030000701843509F442C0809107018D3321F402
:101040000E94DA050E94D406809107018D33B1F128
:10105000809108018130A9F40E94161510920601B2
:101060001092080119820AC08981882F90E0FC0142
:10107000EE55FF4F108289818F5F89838981843685
:1010800098F3809107010E94E107809109019091F6
:101090000A01692F0E942015809107010E944B15BB
:1010A00080910A018F5F80930A0180910A01853146
:1010B00029F4809109018F5F809309010F90CF91EE
:1010C000DF910895DF93CF930F92CDB7DEB71982EA
:1010D0000EC08981882F90E0FC01EE58FF4F90816F
:1010E0008981692F0E947E0889818F5F8983898128
:1010F000803278F30F90CF91DF910895DF93CF93F3
:10110000CDB7DEB72C970FB6F894DEBF0FBECDBFBC
:101110008B836C838B8187708A838B818695869580
:10112000869589838C81282F30E03C872B878B859F
:101130009C858130910509F4C9C02B853C852230FE
:10114000310509F485C18B859C85009709F03DC266
:101150008981282F30E03A87298789859A858130CF
:10116000910509F43EC029853A85223031052CF4D9
:1011700089859A85009771F028C229853A852230A1
:10118000310509F455C089859A858330910509F4A4
:1011900076C01BC2AAE3B0E0EAE3F0E08081482F0A
:1011A0008A81282F30E081E090E002C0880F991FEB
:1011B0002A95E2F7842B8C93ABE3B0E0EBE3F0E00D
:1011C0008081482F8A81282F30E081E090E0022E34
:1011D00002C0880F991F0A94E2F7809584238C93AC
:1011E000F4C1A7E3B0E0E7E3F0E08081482F8A8113
:1011F000282F30E081E090E002C0880F991F2A95E7
:10120000E2F7842B8C93A8E3B0E0E8E3F0E0808180
:10121000482F8A81282F30E081E090E0022E02C022
:10122000880F991F0A94E2F7809584238C93CDC18F
:10123000A4E3B0E0E4E3F0E08081482F8A81282F26
:1012400030E081E090E002C0880F991F2A95E2F714
:10125000842B8C93A5E3B0E0E5E3F0E08081482F98
:101260008A81282F30E081E090E0022E02C0880FB2
:10127000991F0A94E2F7809584238C93A6C1A1E379
:10128000B0E0E1E3F0E08081482F8A81282F30E050
:1012900081E090E002C0880F991F2A95E2F7842B25
:1012A0008C93A2E3B0E0E2E3F0E08081482F8A81F2
:1012B000282F30E081E090E0022E02C0880F991FB5
:1012C0000A94E2F7809584238C937FC18981282F2B
:1012D00030E038872F838F8198858130910509F41C
:1012E0003FC02F813885223031052CF48F819885BD
:1012F000009771F06AC12F8138852230310509F4D9
:1013000057C08F8198858330910509F479C05DC1FC
:10131000AAE3B0E0EAE3F0E08081482F8A81282F39
:1013200030E081E090E002C0880F991F2A95E2F733
:10133000809584238C93ABE3B0E0EBE3F0E0808115
:10134000482F8A81282F30E081E090E0022E02C0F1
:10135000880F991F0A94E2F7809584238C9335C1F6
:10136000A7E3B0E0E7E3F0E08081482F8A81282FEF
:1013700030E081E090E002C0880F991F2A95E2F7E3
:10138000809584238C93A8E3B0E0E8E3F0E08081CB
:10139000482F8A81282F30E081E090E0022E02C0A1
:1013A000880F991F0A94E2F7809584238C930DC1CE
:1013B000A4E3B0E0E4E3F0E08081482F8A81282FA5
:1013C00030E081E090E002C0880F991F2A95E2F793
:1013D000809584238C93A5E3B0E0E5E3F0E0808181
:1013E000482F8A81282F30E081E090E0022E02C051
:1013F000880F991F0A94E2F7809584238C93E5C0A7
:10140000A1E3B0E0E1E3F0E08081482F8A81282F5A
:1014100030E081E090E002C0880F991F2A95E2F742
:10142000809584238C93A2E3B0E0E2E3F0E0808136
:10143000482F8A81282F30E081E090E0022E02C000
:10144000880F991F0A94E2F7809584238C93BDC07E
:101450008981282F30E03E832D838D819E818130CC
:10146000910509F43EC02D813E81223031052CF4D6
:101470008D819E81009771F0A8C02D813E81223020
:10148000310509F455C08D819E818330910509F4A1
:1014900076C09BC0AAE3B0E0EAE3F0E08081482F89
:1014A0008A81282F30E081E090E002C0880F991FE8
:1014B0002A95E2F7809584238C93ABE3B0E0EBE3CD
:1014C000F0E08081482F8A81282F30E081E090E091
:1014D000022E02C0880F991F0A94E2F7842B8C9386
:1014E00074C0A7E3B0E0E7E3F0E08081482F8A8191
:1014F000282F30E081E090E002C0880F991F2A95E4
:10150000E2F7809584238C93A8E3B0E0E8E3F0E071
:101510008081482F8A81282F30E081E090E0022EE0
:1015200002C0880F991F0A94E2F7842B8C934DC058
:10153000A4E3B0E0E4E3F0E08081482F8A81282F23
:1015400030E081E090E002C0880F991F2A95E2F711
:10155000809584238C93A5E3B0E0E5E3F0E08081FF
:10156000482F8A81282F30E081E090E0022E02C0CF
:10157000880F991F0A94E2F7842B8C9326C0A1E36D
:10158000B0E0E1E3F0E08081482F8A81282F30E04D
:1015900081E090E002C0880F991F2A95E2F78095BC
:1015A00084238C93A2E3B0E0E2E3F0E08081482F53
:1015B0008A81282F30E081E090E0022E02C0880F5F
:1015C000991F0A94E2F7842B8C932C960FB6F8940B
:1015D000DEBF0FBECDBFCF91DF910895DF93CF93D4
:1015E000CDB7DEB728970FB6F894DEBF0FBECDBFDC
:1015F0008B836C838B8187708A838B81869586959C
:10160000869589838C81813009F06FC08981282F6C
:1016100030E038872F838F8198858130910549F19B
:101620002F813885223031052CF48F8198850097E1
:1016300061F0CEC02F8138852230310571F18F8164
:10164000988583309105E9F1C3C0ABE3B0E0EBE3EB
:10165000F0E08081482F8A81282F30E081E090E0FF
:10166000022E02C0880F991F0A94E2F7842B8C93F4
:10167000AFC0A8E3B0E0E8E3F0E08081482F8A81C2
:10168000282F30E081E090E0022E02C0880F991FE1
:101690000A94E2F7842B8C939BC0A5E3B0E0E5E3CA
:1016A000F0E08081482F8A81282F30E081E090E0AF
:1016B000022E02C0880F991F0A94E2F7842B8C93A4
:1016C00087C0A2E3B0E0E2E3F0E08081482F8A81A6
:1016D000282F30E081E090E0022E02C0880F991F91
:1016E0000A94E2F7842B8C9373C08981282F30E011
:1016F0003E832D838D819E818130910559F12D810D
:101700003E81223031052CF48D819E81009769F055
:101710005FC02D813E812230310589F18D819E810E
:101720008330910509F440C053C0ABE3B0E0EBE374
:10173000F0E08081482F8A81282F30E081E090E01E
:10174000022E02C0880F991F0A94E2F78095842325
:101750008C933EC0A8E3B0E0E8E3F0E08081482F3E
:101760008A81282F30E081E090E0022E02C0880FAD
:10177000991F0A94E2F7809584238C9329C0A5E3EE
:10178000B0E0E5E3F0E08081482F8A81282F30E047
:1017900081E090E0022E02C0880F991F0A94E2F7C0
:1017A000809584238C9314C0A2E3B0E0E2E3F0E0E0
:1017B0008081482F8A81282F30E081E090E0022E3E
:1017C00002C0880F991F0A94E2F7809584238C93B6
:1017D00028960FB6F894DEBF0FBECDBFCF91DF9134
:1017E0000895DF93CF9300D000D000D0CDB7DEB7FF
:1017F0008C838C8187708B838C818695869586956A
:101800008A8319828A81282F30E03E832D834D817F
:101810005E814130510541F18D819E81823091057B
:1018200034F42D813E812115310561F052C04D8186
:101830005E814230510551F18D819E818330910549
:10184000B9F147C0E9E3F0E08081282F30E08B81D7
:10185000882F90E0A90102C0559547958A95E2F737
:10186000CA018170898335C0E6E3F0E08081282FCA
:1018700030E08B81882F90E0A90102C055954795F3
:101880008A95E2F7CA018170898323C0E3E3F0E01F
:101890008081282F30E08B81882F90E0A90102C041
:1018A000559547958A95E2F7CA018170898311C0E1
:1018B000E0E3F0E08081282F30E08B81882F90E0FA
:1018C000A90102C0559547958A95E2F7CA01817032
:1018D0008983898126960FB6F894DEBF0FBECDBFEF
:1018E000CF91DF910895DF93CF9300D000D00F9276
:1018F000CDB7DEB78B838B8187708A838B8186958A
:101900008695869589838981282F30E03D832C83B5
:101910008C819D818130910549F12C813D8122305E
:1019200031052CF48C819D81009761F05AC02C8187
:101930003D812230310571F18C819D81833091058B
:10194000E9F14FC0ABE3B0E0EBE3F0E08081482F7A
:101950008A81282F30E081E090E0022E02C0880FBB
:10196000991F0A94E2F784278C933BC0A8E3B0E068
:10197000E8E3F0E08081482F8A81282F30E081E081
:1019800090E0022E02C0880F991F0A94E2F7842784
:101990008C9327C0A5E3B0E0E5E3F0E08081482F19
:1019A0008A81282F30E081E090E0022E02C0880F6B
:1019B000991F0A94E2F784278C9313C0A2E3B0E046
:1019C000E2E3F0E08081482F8A81282F30E081E037
:1019D00090E0022E02C0880F991F0A94E2F7842734
:1019E0008C930F900F900F900F900F90CF91DF91ED
:1019F0000895DF93CF9300D000D0CDB7DEB78983B1
:101A00006A838981282F30E03C832B838B819C81E2
:101A100081309105D1F02B813C81223031052CF4AD
:101A20008B819C81009761F01EC02B813C8122300C
:101A3000310581F08B819C818330910581F013C049
:101A4000EBE3F0E08A8180830EC0E8E3F0E08A8176
:101A5000808309C0E5E3F0E08A81808304C0E2E38B
:101A6000F0E08A8180830F900F900F900F90CF91BC
:101A7000DF910895DF93CF9300D000D0CDB7DEB7CC
:101A80008A8319828A81282F30E03C832B838B81C3
:101A90009C8181309105D1F02B813C812230310530
:101AA0002CF48B819C81009761F01EC02B813C81BE
:101AB0002230310581F08B819C818330910581F04A
:101AC00013C0E9E3F0E0808189830EC0E6E3F0E033
:101AD0008081898309C0E3E3F0E08081898304C0C9
:101AE000E0E3F0E08081898389810F900F900F906F
:101AF0000F90CF91DF910895DF93CF93CDB7DEB7ED
:101B0000E9970FB6F894DEBF0FBECDBF89AF8CE169
:101B100060E00E94EE0A89AD982F991F9927991FBE
:101B200083E1692F0E94EE0A89AD8295869586959C
:101B30008370982F917082E1692F0E94EE0A89AD1F
:101B4000829586958770982F917081E1692F0E9408
:101B5000EE0A89AD82958F70982F917080E1692F80
:101B60000E94EE0A8EE161E00E94EE0A80E090E0C1
:101B7000A0E8BFE38DAB9EABAFABB8AF6DA97EA9BC
:101B80008FA998AD20E030E04AEF54E40E941F0294
:101B9000DC01CB0189AB9AABABABBCAB69A97AA931
:101BA0008BA99CA920E030E040E85FE30E94790324
:101BB00088232CF481E090E098AB8FA73FC069A9FF
:101BC0007AA98BA99CA920E03FEF4FE757E40E9438
:101BD000190318164CF56DA97EA98FA998AD20E0C0
:101BE00030E040E251E40E941F02DC01CB01BC0165
:101BF000CD010E944900DC01CB0198AB8FA70FC03B
:101C000088EC90E09EA78DA78DA59EA50197F1F782
:101C10009EA78DA78FA598A9019798AB8FA78FA591
:101C200098A9009769F714C069A97AA98BA99CA9FA
:101C30000E944900DC01CB0198AB8FA78FA598A922
:101C40009CA78BA78BA59CA50197F1F79CA78BA7B9
:101C50008EE160E00E94EE0A80E090E0A0E8BFE341
:101C60008FA398A7A9A7BAA76FA178A589A59AA5B8
:101C700020E030E04AEF54E40E941F02DC01CB0177
:101C80008BA39CA3ADA3BEA36BA17CA18DA19EA1A0
:101C900020E030E040E85FE30E94790388232CF4E1
:101CA00081E090E09AA389A33FC06BA17CA18DA1A4
:101CB0009EA120E03FEF4FE757E40E94190318165A
:101CC0004CF56FA178A589A59AA520E030E040E207
:101CD00051E40E941F02DC01CB01BC01CD010E9436
:101CE0004900DC01CB019AA389A30FC088EC90E0E6
:101CF00098A38F8F8F8D98A10197F1F798A38F8F5D
:101D000089A19AA101979AA389A389A19AA1009771
:101D100069F714C06BA17CA18DA19EA10E9449000E
:101D2000DC01CB019AA389A389A19AA19E8F8D8FF3
:101D30008D8D9E8D0197F1F79E8F8D8F89AD869544
:101D400086958695982F917083E1692F0E94EE0AFF
:101D500089AD86958695982F917082E1692F0E94B2
:101D6000EE0A89AD8695982F917081E1692F0E94C6
:101D7000EE0A89AD982F917080E1692F0E94EE0ADA
:101D80008EE161E00E94EE0A80E090E0A0E8BFE30F
:101D9000898F9A8FAB8FBC8F698D7A8D8B8D9C8D3F
:101DA00020E030E04AEF54E40E941F02DC01CB0146
:101DB0008D8B9E8BAF8BB88F6D897E898F89988D27
:101DC00020E030E040E85FE30E94790388232CF4B0
:101DD00081E090E09C8B8B8B3FC06D897E898F89E1
:101DE000988D20E03FEF4FE757E40E941903181643
:101DF0004CF5698D7A8D8B8D9C8D20E030E040E232
:101E000051E40E941F02DC01CB01BC01CD010E9404
:101E10004900DC01CB019C8B8B8B0FC088EC90E0E0
:101E20009A8B898B89899A890197F1F79A8B898B8B
:101E30008B899C8901979C8B8B8B8B899C890097C4
:101E400069F714C06D897E898F89988D0E94490039
:101E5000DC01CB019C8B8B8B8B899C89988B8F872A
:101E60008F8598890197F1F7988B8F878EE160E0D5
:101E70000E94EE0A80E090E0A0E8BFE38B879C8799
:101E8000AD87BE876B857C858D859E8520E030E0A3
:101E90004AEF54E40E941F02DC01CB018F83988734
:101EA000A987BA876F81788589859A8520E030E097
:101EB00040E85FE30E94790388232CF481E090E0FE
:101EC0009E838D833FC06F81788589859A8520E0C8
:101ED0003FEF4FE757E40E94190318164CF56B8546
:101EE0007C858D859E8520E030E040E251E40E94B3
:101EF0001F02DC01CB01BC01CD010E944900DC01C5
:101F0000CB019E838D830FC088EC90E09C838B83F4
:101F10008B819C810197F1F79C838B838D819E81BE
:101F200001979E838D838D819E81009769F714C0F0
:101F30006F81788589859A850E944900DC01CB01F3
:101F40009E838D838D819E819A83898389819A81E5
:101F50000197F1F79A838983E9960FB6F894DEBF6B
:101F60000FBECDBFCF91DF910895DF93CF93CDB753
:101F7000DEB7E9970FB6F894DEBF0FBECDBF89AFCD
:101F80008CE161E00E94EE0A89AD982F991F992794
:101F9000991F83E1692F0E94EE0A89AD829586958B
:101FA00086958370982F917082E1692F0E94EE0AC6
:101FB00089AD829586958770982F917081E1692F00
:101FC0000E94EE0A89AD82958F70982F917080E102
:101FD000692F0E94EE0A8EE161E00E94EE0A80E025
:101FE00090E0A0E8BFE38DAB9EABAFABB8AF6DA9FF
:101FF0007EA98FA998AD20E030E04AEF54E40E941A
:102000001F02DC01CB0189AB9AABABABBCAB69A9BE
:102010007AA98BA99CA920E030E040E85FE30E9408
:10202000790388232CF481E090E098AB8FA73FC020
:1020300069A97AA98BA99CA920E03FEF4FE757E453
:102040000E94190318164CF56DA97EA98FA998ADA9
:1020500020E030E040E251E40E941F02DC01CB01AD
:10206000BC01CD010E944900DC01CB0198AB8FA7D8
:102070000FC088EC90E09EA78DA78DA59EA5019727
:10208000F1F79EA78DA78FA598A9019798AB8FA769
:102090008FA598A9009769F714C069A97AA98BA997
:1020A0009CA90E944900DC01CB0198AB8FA78FA5AA
:1020B00098A99CA78BA78BA59CA50197F1F79CA736
:1020C0008BA78EE160E00E94EE0A80E090E0A0E83D
:1020D000BFE38FA398A7A9A7BAA76FA178A589A5E1
:1020E0009AA520E030E04AEF54E40E941F02DC0190
:1020F000CB018BA39CA3ADA3BEA36BA17CA18DA19F
:102100009EA120E030E040E85FE30E94790388234D
:102110002CF481E090E09AA389A33FC06BA17CA13D
:102120008DA19EA120E03FEF4FE757E40E941903E5
:1021300018164CF56FA178A589A59AA520E030E086
:1021400040E251E40E941F02DC01CB01BC01CD0141
:102150000E944900DC01CB019AA389A30FC088EC3F
:1021600090E098A38F8F8F8D98A10197F1F798A396
:102170008F8F89A19AA101979AA389A389A19AA176
:10218000009769F714C06BA17CA18DA19EA10E944C
:102190004900DC01CB019AA389A389A19AA19E8F52
:1021A0008D8F8D8D9E8D0197F1F79E8F8D8F89ADCF
:1021B000869586958695982F917083E1692F0E9468
:1021C000EE0A89AD86958695982F917082E1692FE8
:1021D0000E94EE0A89AD8695982F917081E1692F52
:1021E0000E94EE0A89AD982F917080E1692F0E94BC
:1021F000EE0A8EE161E00E94EE0A80E090E0A0E845
:10220000BFE3898F9A8FAB8FBC8F698D7A8D8B8D51
:102210009C8D20E030E04AEF54E40E941F02DC0174
:10222000CB018D8B9E8BAF8BB88F6D897E898F890B
:10223000988D20E030E040E85FE30E947903882336
:102240002CF481E090E09C8B8B8B3FC06D897E8964
:102250008F89988D20E03FEF4FE757E40E941903E4
:1022600018164CF5698D7A8D8B8D9C8D20E030E0B1
:1022700040E251E40E941F02DC01CB01BC01CD0110
:102280000E944900DC01CB019C8B8B8B0FC088EC3A
:1022900090E09A8B898B89899A890197F1F79A8BBB
:1022A000898B8B899C8901979C8B8B8B8B899C89D3
:1022B000009769F714C06D897E898F89988D0E9477
:1022C0004900DC01CB019C8B8B8B8B899C89988B83
:1022D0008F878F8598890197F1F7988B8F878EE18B
:1022E00060E00E94EE0A80E090E0A0E8BFE38B8708
:1022F0009C87AD87BE876B857C858D859E8520E01C
:1023000030E04AEF54E40E941F02DC01CB018F83CE
:102310009887A987BA876F81788589859A8520E013
:1023200030E040E85FE30E94790388232CF481E0E9
:1023300090E09E838D833FC06F81788589859A85E3
:1023400020E03FEF4FE757E40E94190318164CF5C1
:102350006B857C858D859E8520E030E040E251E4F0
:102360000E941F02DC01CB01BC01CD010E9449008B
:10237000DC01CB019E838D830FC088EC90E09C83B1
:102380008B838B819C810197F1F79C838B838D815B
:102390009E8101979E838D838D819E81009769F731
:1023A00014C06F81788589859A850E944900DC0177
:1023B000CB019E838D838D819E819A8389838981C0
:1023C0009A810197F1F79A838983E9960FB6F89479
:1023D000DEBF0FBECDBFCF91DF9108950F931F9346
:1023E000DF93CF93CDB7DEB7C455D0400FB6F89486
:1023F000DEBF0FBECDBFFE01EF5AFF4F80E090E081
:10240000A8E4B2E480839183A283B3838E01035B4B
:102410001F4FFE01EF5AFF4F6081718182819381CE
:1024200020E030E04AEF54E40E941F02DC01CB01BF
:10243000F80180839183A283B383FE01E35BFF4FA6
:10244000608171818281938120E030E040E85FE328
:102450000E947903882344F4FE01E55BFF4F81E08D
:1024600090E09183808364C0FE01E35BFF4F608155
:1024700071818281938120E03FEF4FE757E40E9412
:10248000190318160CF043C0FE01EF5AFF4F60818C
:1024900071818281938120E030E040E251E40E942A
:1024A0001F02DC01CB018E01055B1F4FBC01CD017A
:1024B0000E944900DC01CB01F801918380831FC099
:1024C000FE01E75BFF4F88EC90E091838083FE0183
:1024D000E75BFF4F808191810197F1F7FE01E75B98
:1024E000FF4F91838083DE01A55BBF4FFE01E55B5B
:1024F000FF4F80819181019711969C938E93FE01ED
:10250000E55BFF4F808191810097D1F627C08E0156
:10251000055B1F4FFE01E35BFF4F6081718182818C
:1025200093810E944900DC01CB01F80191838083F3
:10253000DE01A95BBF4FFE01E55BFF4F808191810A
:102540008D939C93FE01E95BFF4F80819181019700
:10255000F1F7FE01E95BFF4F9183808382E00E94E7
:102560007C0DFE01ED5BFF4F80E090E0A0E8BFE353
:1025700080839183A283B3838E01015C1F4FFE0190
:10258000ED5BFF4F608171818281938120E030E0BB
:102590004AEF54E40E941F02DC01CB01F801808362
:1025A0009183A283B383FE01FF9660817181828152
:1025B000938120E030E040E85FE30E9479038823C4
:1025C0002CF481E090E09EAF8DAF46C0FE01FF96F7
:1025D000608171818281938120E03FEF4FE757E472
:1025E0000E941903181664F5FE01ED5BFF4F608130
:1025F00071818281938120E030E040E251E40E94C9
:102600001F02DC01CB01BC01CD010E944900DC01AD
:10261000CB019EAF8DAF0FC088EC90E09CAF8BAF2D
:102620008BAD9CAD0197F1F79CAF8BAF8DAD9EAD9F
:1026300001979EAF8DAF8DAD9EAD009769F716C027
:10264000FE01FF9660817181828193810E94490021
:10265000DC01CB019EAF8DAF8DAD9EAD9AAF89AF42
:1026600089AD9AAD0197F1F79AAF89AF88E20E94E0
:102670007C0D80E090E0A0E8BFE38DAB9EABAFABFC
:10268000B8AF6DA97EA98FA998AD20E030E04AEFE0
:1026900054E40E941F02DC01CB0189AB9AABABABC7
:1026A000BCAB69A97AA98BA99CA920E030E040E8DD
:1026B0005FE30E94790388232CF481E090E098ABDB
:1026C0008FA73FC069A97AA98BA99CA920E03FEFF9
:1026D0004FE757E40E94190318164CF56DA97EA91F
:1026E0008FA998AD20E030E040E251E40E941F0243
:1026F000DC01CB01BC01CD010E944900DC01CB0112
:1027000098AB8FA70FC088EC90E09EA78DA78DA5F2
:102710009EA50197F1F79EA78DA78FA598A9019770
:1027200098AB8FA78FA598A9009769F714C069A9DE
:102730007AA98BA99CA90E944900DC01CB0198AB26
:102740008FA78FA598A99CA78BA78BA59CA5019760
:10275000F1F79CA78BA78CE00E947C0D80E090E0B5
:10276000A0E8BFE38FA398A7A9A7BAA76FA178A5F0
:1027700089A59AA520E030E04AEF54E40E941F02A8
:10278000DC01CB018BA39CA3ADA3BEA36BA17CA159
:102790008DA19EA120E030E040E85FE30E94790334
:1027A00088232CF481E090E09AA389A33FC06BA119
:1027B0007CA18DA19EA120E03FEF4FE757E40E944E
:1027C000190318164CF56FA178A589A59AA520E0E4
:1027D00030E040E251E40E941F02DC01CB01BC0169
:1027E000CD010E944900DC01CB019AA389A30FC04F
:1027F00088EC90E098A38F8F8F8D98A10197F1F7C7
:1028000098A38F8F89A19AA101979AA389A389A1DF
:102810009AA1009769F714C06BA17CA18DA19EA11C
:102820000E944900DC01CB019AA389A389A19AA146
:102830009E8F8D8F8D8D9E8D0197F1F79E8F8D8F41
:1028400081E00E947C0D80E090E0A0E0B0E4898F00
:102850009A8FAB8FBC8F698D7A8D8B8D9C8D20E08C
:1028600030E04AEF54E40E941F02DC01CB018D8B63
:102870009E8BAF8BB88F6D897E898F89988D20E074
:1028800030E040E85FE30E94790388232CF481E084
:1028900090E09C8B8B8B3FC06D897E898F89988D52
:1028A00020E03FEF4FE757E40E94190318164CF55C
:1028B000698D7A8D8B8D9C8D20E030E040E251E473
:1028C0000E941F02DC01CB01BC01CD010E94490026
:1028D000DC01CB019C8B8B8B0FC088EC90E09A8B3A
:1028E000898B89899A890197F1F79A8B898B8B89D2
:1028F0009C8901979C8B8B8B8B899C89009769F7AE
:1029000014C06D897E898F89988D0E944900DC01F1
:10291000CB019C8B8B8B8B899C89988B8F878F8528
:1029200098890197F1F7988B8F8786E00E947C0D3C
:1029300080E090E0A0E8BFE38B879C87AD87BE87EF
:102940006B857C858D859E8520E030E04AEF54E4E0
:102950000E941F02DC01CB018F839887A987BA8769
:102960006F81788589859A8520E030E040E85FE3D3
:102970000E94790388232CF481E090E09E838D836C
:102980003FC06F81788589859A8520E03FEF4FE7CA
:1029900057E40E94190318164CF56B857C858D85CC
:1029A0009E8520E030E040E251E40E941F02DC01FD
:1029B000CB01BC01CD010E944900DC01CB019E830B
:1029C0008D830FC088EC90E09C838B838B819C81EE
:1029D0000197F1F79C838B838D819E8101979E8364
:1029E0008D838D819E81009769F714C06F817885F2
:1029F00089859A850E944900DC01CB019E838D83E5
:102A00008D819E819A83898389819A810197F1F7CB
:102A10009A838983CC5ADF4F0FB6F894DEBF0FBE7E
:102A2000CDBFCF91DF911F910F910895DF93CF9389
:102A3000CDB7DEB781E00E947C0DCF91DF91089584
:102A4000DF93CF9300D0CDB7DEB789836A838981C6
:102A5000882329F48A8180580E947C0D17C08981BF
:102A6000813029F48A8180540E947C0D0FC08981B5
:102A7000823029F48A818C560E947C0D07C089819E
:102A8000833021F48A818C520E947C0D0F900F902C
:102A9000CF91DF910895DF93CF930F92CDB7DEB73B
:102AA000898389810E94B50F0F90CF91DF9108959E
:102AB000DF93CF9300D00F92CDB7DEB79B838A838D
:102AC00019820EC08981282F30E08A819B81FC0108
:102AD000E20FF31F80810E944B1589818F5F8983EC
:102AE0008981282F30E08A819B81FC01E20FF31F4E
:102AF0008081882339F70F900F900F90CF91DF914D
:102B000008950F931F93DF93CF93CDB7DEB76697EA
:102B10000FB6F894DEBF0FBECDBF6B8B7C8B8D8B59
:102B20009E8B1A8219828B899C89AD89BE890097F8
:102B3000A105B10521F480E30E944B1567C08B8984
:102B40009C89AD89BE89BB230CF041C08DE20E94F7
:102B50004B158B899C89AD89BE89B095A0959095C0
:102B600081959F4FAF4FBF4F8B8B9C8BAD8BBE8B97
:102B70002EC08A81082F10E08B899C89AD89BE897F
:102B80002AE030E040E050E0BC01CD010E942E1868
:102B9000DC01CB01282F205DCE010396FC01E00F64
:102BA000F11F20838A818F5F8A838B899C89AD89FD
:102BB000BE892AE030E040E050E0BC01CD010E9437
:102BC0002E18DA01C9018B8B9C8BAD8BBE8B8B8948
:102BD0009C89AD89BE890097A105B10551F68A810E
:102BE0008150898310C08981282F332727FD309594
:102BF000CE010396FC01E20FF31F80810E944B156A
:102C0000898181508983898188236CF766960FB604
:102C1000F894DEBF0FBECDBFCF91DF911F910F9112
:102C20000895DF93CF9300D0CDB7DEB79A83898321
:102C300089819A8120E137E2B9010E94071828EEC4
:102C400033E0B9010E940718CB01805D0E944B154B
:102C500089819A8128EE33E0B9010E94071824E6A1
:102C600030E0B9010E940718CB01805D0E944B152E
:102C700089819A8124E630E0B9010E9407182AE090
:102C800030E0B9010E940718CB01805D0E944B150E
:102C900089819A812AE030E0B9010E940718805D9D
:102CA0000E944B150F900F90CF91DF910895DF9305
:102CB000CF9300D0CDB7DEB78A8387E089831CC06D
:102CC0008A81282F30E08981992787FD9095A90175
:102CD00002C0559547958A95E2F7CA0181709070B8
:102CE000882321F081E30E944B1503C080E30E94FA
:102CF0004B15898181508983898188230CF70F9036
:102D00000F90CF91DF910895DF93CF9300D00F9272
:102D1000CDB7DEB78B838B818F708A838B81829551
:102D20008F70898389818A3028F48981805D0E942F
:102D30004B1504C08981895C0E944B158A818A30B9
:102D400028F48A81805D0E944B1504C08A81895CC9
:102D50000E944B150F900F900F90CF91DF91089527
:102D6000DF93CF9300D000D0CDB7DEB789836A83DD
:102D70005C834B8389816A810E9420158B819C81B1
:102D80000E9458150F900F900F900F90CF91DF91E8
:102D90000895DF93CF9300D000D0CDB7DEB78A83FC
:102DA0006B834C838A816B810E942015198206C037
:102DB00080E20E944B1589818F5F898399818C8184
:102DC0009817B0F30F900F900F900F90CF91DF9165
:102DD0000895DF93CF9300D000D0CDB7DEB78A83BC
:102DE0007C836B838A81882F90E00896880F991FD7
:102DF000880F991F880F991F0E947C0D19820EC0A1
:102E00008981282F30E08B819C81FC01E20FF31F28
:102E100080810E944B1589818F5F898389818830E9
:102E200078F380E80E947C0D0F900F900F900F9028
:102E3000CF91DF910895DF93CF930F92CDB7DEB797
:102E4000198208C08981819561E00E94EE0A89811A
:102E50008F5F898389818430A8F30F90CF91DF91B0
:102E60000895DF93CF93CDB7DEB761970FB6F8948F
:102E7000DEBF0FBECDBF84E58F87198AA5C08989C3
:102E800060E00E94EE0A188A94C088898C5F0E94D4
:102E9000F10B882309F08AC08989482F50E088897E
:102EA000282F30E0CA01880F991F880F991F820FC1
:102EB000931FFC01EE56FF4F80818F8780E090E0EA
:102EC000A0E2B1E48B879C87AD87BE876B857C854C
:102ED0008D859E8520E030E04AEF54E40E941F0279
:102EE000DC01CB018F839887A987BA876F817885AA
:102EF00089859A8520E030E040E85FE30E9479030D
:102F000088232CF481E090E09E838D833FC06F8105
:102F1000788589859A8520E03FEF4FE757E40E9446
:102F2000190318164CF56B857C858D859E8520E0F0
:102F300030E040E251E40E941F02DC01CB01BC0101
:102F4000CD010E944900DC01CB019E838D830FC01F
:102F500088EC90E09C838B838B819C810197F1F7B7
:102F60009C838B838D819E8101979E838D838D8130
:102F70009E81009769F714C06F81788589859A854D
:102F80000E944900DC01CB019E838D838D819E814F
:102F90009A83898389819A810197F1F79A8389833A
:102FA00088898C5F0E94F10B8823D1F388898F5F19
:102FB000888B8889843008F468CF898961E00E9411
:102FC000EE0A89898F5F898B8989843008F457CF0D
:102FD0008F8561960FB6F894DEBF0FBECDBFCF913F
:102FE000DF910895DF93CF93CDB7DEB70E94A3059D
:102FF0000E940E08FDCF991B79E004C0991F961717
:1030000008F0961B881F7A95C9F780950895AA1B2A
:10301000BB1B51E107C0AA1FBB1FA617B70710F0C3
:10302000A61BB70B881F991F5A95A9F780959095F5
:10303000BC01CD01089597FB092E07260AD077FD24
:1030400004D0E5DF06D000201AF4709561957F4F1B
:103050000895F6F7909581959F4F089597FB092E57
:1030600005260ED057FD04D014D00AD0001C38F429
:1030700050954095309521953F4F4F4F5F4F0895A4
:10308000F6F790958095709561957F4F8F4F9F4F84
:103090000895A1E21A2EAA1BBB1BFD010DC0AA1F99
:1030A000BB1FEE1FFF1FA217B307E407F50720F0B1
:1030B000A21BB30BE40BF50B661F771F881F991F2C
:1030C0001A9469F760957095809590959B01AC0175
:1030D000BD01CF0108952F923F924F925F926F9260
:1030E0007F928F929F92AF92BF92CF92DF92EF9298
:1030F000FF920F931F93CF93DF93CDB7DEB7CA1B19
:10310000DB0B0FB6F894DEBF0FBECDBF09942A8843
:10311000398848885F846E847D848C849B84AA84EB
:10312000B984C884DF80EE80FD800C811B81AA8178
:10313000B981CE0FD11D0FB6F894DEBF0FBECDBF43
:08314000ED010895F894FFCFA2
:10314800526573756C74203D20000000000000007B
:10315800000000000000020202020000000000005F
:103168000000000000000000000000000002000055
:1031780000023738392F3435362A3132332D43306F
:023188003D2BDD
:00000001FF
