:100000000C942A000C9447000C9447000C94470071
:100010000C9447000C9447000C9447000C94470044
:100020000C9447000C9447000C9447000C94470034
:100030000C944F160C9447000C9447000C94470006
:100040000C9447000C9447000C9447000C94470014
:100050000C94470011241FBECFE5D8E0DEBFCDBF12
:1000600010E0A0E6B0E0E4EBF2E302C005900D92F0
:10007000A838B107D9F710E0A8E8B0E001C01D9298
:10008000AE38B107E1F70E9478140C9458190C941B
:100090000000EF92FF920F931F937B018C0120E0F1
:1000A00030E040E05FE40E94490388238CF0C801FF
:1000B000B70120E030E040E05FE40E94C1010E940F
:1000C000A9039B01AC01205030404040504806C07D
:1000D000C801B7010E94A9039B01AC01B901CA0183
:1000E0001F910F91FF90EF900895A0E0B0E0EBE733
:1000F000F0E00C942119DC012B01FA019C91923063
:1001000008F439C1EB018881823008F433C194309E
:1001100069F4843009F02FC111969C91119789815F
:10012000981709F428C1A0E6B0E025C1843009F48D
:1001300021C18230A9F4923009F01DC19A01AD01AC
:1001400088E0EA010990AE01E90109929E0181501F
:10015000C1F7E201898111969C918923818308C1AD
:10016000923009F407C112962D903C901397EB0141
:100170008A819B811496AD90BD90CD90DC901797AD
:10018000EC80FD800E811F819101281B390BB90184
:1001900037FF04C066277727621B730B6032710537
:1001A0000CF061C0121613066CF537014801062EDB
:1001B00004C096948794779467940A94D2F721E0C8
:1001C00030E040E050E004C0220F331F441F551FB1
:1001D0006A95D2F721503040404050402E213F21B7
:1001E00040235123211531054105510521F021E01E
:1001F00030E040E050E079018A01E628F72808293C
:1002000019293CC0232BD1F1260E371E350146019A
:10021000062E04C096948794779467940A94D2F734
:1002200021E030E040E050E004C0220F331F441FC3
:10023000551F6A95D2F721503040404050402A2146
:100240003B214C215D21211531054105510521F04E
:1002500021E030E040E050E059016A01A628B728CB
:10026000C828D9280BC0821593052CF01C01AA249C
:10027000BB24650103C0EE24FF24870111969C91E5
:10028000D20111968C91981709F445C0992339F041
:10029000A80197012A193B094C095D0906C0A6016E
:1002A00095012E193F09400B510B57FD08C01182D3
:1002B0003382228224833583468357831DC081E0A5
:1002C00081833382228288279927DC01821B930B4A
:1002D000A40BB50B84839583A683B7830DC0220F2F
:1002E000331F441F551F24833583468357838281E0
:1002F000938101979383828324813581468157813D
:10030000DA01C9010197A109B1098F5F9F4FAF4F72
:10031000BF4328F30BC0918333822282EA0CFB1C7B
:100320000C1D1D1DE482F5820683178383E0808304
:10033000248135814681578157FF1AC0C901AA27F8
:1003400097FDA095BA2F81709070A070B0705695EF
:10035000479537952795822B932BA42BB52B848318
:100360009583A683B7838281938101969383828349
:10037000DF0101C0D201CD01CDB7DEB7E2E10C94BF
:100380003D19A0E2B0E0E7ECF1E00C942D1969838F
:100390007A838B839C832D833E834F835887E9E048
:1003A000EE2EF12CEC0EFD1ECE010196B7010E943F
:1003B000D2048E010F5E1F4FCE010596B8010E9438
:1003C000D2048A8991E089278A8BC701B801AE01DE
:1003D000475E5F4F0E9475000E94FD03A096E6E015
:1003E0000C944919A0E2B0E0E8EFF1E00C942D196B
:1003F00069837A838B839C832D833E834F835887C5
:10040000F9E0EF2EF12CEC0EFD1ECE010196B701A6
:100410000E94D2048E010F5E1F4FCE010596B801D7
:100420000E94D204C701B801AE01475E5F4F0E942F
:1004300075000E94FD03A096E6E00C944919A0E225
:10044000B0E0E5E2F2E00C94211969837A838B83B2
:100450009C832D833E834F835887CE010196BE0136
:10046000675F7F4F0E94D204CE010596BE016F5E8A
:100470007F4F0E94D2049985923088F0898982301A
:10048000C8F0943019F4823051F404C0843029F457
:10049000923081F480E690E0C6C0923049F420E0CA
:1004A0009A858A89981321E02A87CE010996BBC0D4
:1004B000823049F420E09A858A89981321E02A8BBA
:1004C000CE014196B0C02D843E844F8458886D88FB
:1004D0007E888F88988CEE24FF248701AA24BB2471
:1004E000650140E050E060E070E0E0E0F0E0C10174
:1004F00081709070892BE9F0E60CF71C081D191D1E
:100500009A01AB012A0D3B1D4C1D5D1D80E090E062
:10051000A0E0B0E0E614F7040805190520F481E036
:1005200090E0A0E0B0E0BA01A901480F591F6A1F8E
:100530007B1FAA0CBB1CCC1CDD1C97FE08C081E0F5
:1005400090E0A0E0B0E0A82AB92ACA2ADB2A3196B6
:10055000E032F10549F0660C771C881C991C569412
:10056000479437942794C3CFFA85EA892B893C892D
:100570008B859C85280F391F2E5F3F4F17C0CA01FE
:1005800081709070892B61F016950795F794E79428
:1005900080E090E0A0E0B0E8E82AF92A0A2B1B2BC3
:1005A00076956795579547952F5F3F4F77FDE7CF36
:1005B0000CC0440F551F661F771F17FD4160EE0CDE
:1005C000FF1C001F111F21503040403090E05907A0
:1005D00090E0690790E4790760F32B8F3C8FDB0193
:1005E000CA018F779070A070B07080349105A1051A
:1005F000B10561F447FD0AC0E114F10401051105DC
:1006000029F0405C5F4F6F4F7F4F40781A8EFE1786
:1006100011F081E08A8F4D8F5E8F6F8F78A383E01A
:10062000898FCE0149960E94FD03A096E2E10C94C9
:100630003D19A8E1B0E0EFE1F3E00C942D196983D6
:100640007A838B839C832D833E834F83588789E0F5
:10065000E82EF12CEC0EFD1ECE010196B7010E9492
:10066000D2048E010F5E1F4FCE010596B8010E9485
:10067000D2048985823040F08989823028F0C70110
:10068000B8010E944A0501C08FEF6896E6E00C941D
:100690004919A8E1B0E0EFE4F3E00C942D19698367
:1006A0007A838B839C832D833E834F83588789E095
:1006B000E82EF12CEC0EFD1ECE010196B7010E9432
:1006C000D2048E010F5E1F4FCE010596B8010E9425
:1006D000D2048985823040F08989823028F0C701B0
:1006E000B8010E944A0501C08FEF6896E6E00C94BD
:1006F0004919A8E1B0E0EFE7F3E00C942D19698304
:100700007A838B839C832D833E834F83588789E034
:10071000E82EF12CEC0EFD1ECE010196B7010E94D1
:10072000D2048E010F5E1F4FCE010596B8010E94C4
:10073000D2048985823040F08989823028F0C7014F
:10074000B8010E944A0501C081E06896E6E00C9479
:100750004919ACE0B0E0EFEAF3E00C943119698399
:100760007A838B839C83CE010196BE016B5F7F4FA2
:100770000E94D2048D81823061F1823050F1843048
:1007800021F48E81882351F12EC02F81388537FDC9
:1007900020C06E812F3131051CF06623F9F023C093
:1007A0008EE190E0821B930B29853A854B855C8511
:1007B00004C056954795379527958A95D2F76623B5
:1007C000B1F050954095309521953F4F4F4F5F4F79
:1007D0000EC020E030E040E050E009C02FEF3FEFD6
:1007E0004FEF5FE704C020E030E040E050E8B9019F
:1007F000CA012C96E2E00C944D19DF92EF92FF9221
:100800000F931F93FC01E480F58006811781D1804E
:100810008081823048F480E090E0A0E1B0E0E82AF6
:10082000F92A0A2B1B2BA5C0843009F49FC0823003
:1008300021F4EE24FF24870105C0E114F104010531
:10084000110519F4E0E0F0E096C0628173819FEF3A
:10085000623879070CF05BC022E83FEF261B370BAC
:100860002A3131052CF020E030E040E050E02AC091
:10087000B801A701022E04C0769567955795479554
:100880000A94D2F781E090E0A0E0B0E004C0880FC5
:10089000991FAA1FBB1F2A95D2F70197A109B10979
:1008A0008E219F21A023B1230097A105B10521F03E
:1008B00081E090E0A0E0B0E09A01AB01282B392B59
:1008C0004A2B5B2BDA01C9018F779070A070B07052
:1008D00080349105A105B10539F427FF09C0205CDA
:1008E0003F4F4F4F5F4F04C0215C3F4F4F4F5F4F13
:1008F000E0E0F0E02030A0E03A07A0E04A07A0E402
:100900005A0710F0E1E0F0E079018A0127C0603871
:10091000710564F5FB01E158FF4FD801C7018F77DE
:100920009070A070B07080349105A105B10539F4C4
:10093000E7FE0DC080E490E0A0E0B0E004C08FE3EB
:1009400090E0A0E0B0E0E80EF91E0A1F1B1F17FFA1
:1009500005C016950795F794E794319687E01695AC
:100960000795F794E7948A95D1F705C0EE24FF2404
:100970008701EFEFF0E06E2F679566276795902F60
:100980009F77D794DD24D7948E2F8695492F462BB9
:10099000582F5D29B701CA011F910F91FF90EF9069
:1009A000DF900895FC01DB01408151812281622F9B
:1009B0006F7770E0221F2227221F9381892F880FD3
:1009C000822B282F30E0991F9927991F11969C930D
:1009D000119721153105A9F54115510561057105DD
:1009E00011F482E037C082E89FEF13969C938E93B8
:1009F00012979A01AB0167E0220F331F441F551F66
:100A00006A95D1F783E08C930DC0220F331F441FEA
:100A1000551F12968D919C911397019713969C9355
:100A20008E931297203080E0380780E0480780E4FA
:100A3000580758F314962D933D934D935C93179755
:100A400008952F3F310579F4411551056105710570
:100A500019F484E08C93089564FF03C081E08C93C3
:100A600012C01C9210C02F57304013963C932E9307
:100A7000129783E08C9387E0440F551F661F771F02
:100A80008A95D1F7706414964D935D936D937C9322
:100A9000179708951F93DC01FB019C91923008F495
:100AA00047C08081823008F443C0943051F41196DD
:100AB0001C91843099F58181682F70E0611B710968
:100AC0003FC0843021F0923031F48230B9F181811D
:100AD000882389F12DC011961C9111978230F1F075
:100AE00081811817D9F412962D913C911397828128
:100AF00093818217930794F028173907BCF0149656
:100B00008D919D910D90BC91A02D248135814681C0
:100B10005781281739074A075B0718F4112341F05A
:100B20000AC082179307A407B50740F4112319F0F0
:100B300061E070E005C06FEF7FEF02C060E070E041
:100B4000CB011F910895DF93CF930F92CDB7DEB7FE
:100B500019820EC08981882F90E0FC01E859FF4F6F
:100B600090818981692F0E94BF0589818F5F898368
:100B70008981803278F30F90CF91DF910895DF93D0
:100B8000CF93CDB7DEB72C970FB6F894DEBF0FBE6C
:100B9000CDBF8B836C838B8187708A838B81869595
:100BA0008695869589838C81282F30E03C872B871A
:100BB0008B859C858130910509F4C9C02B853C85C6
:100BC0002230310509F485C18B859C85009709F099
:100BD0003DC28981282F30E03A87298789859A8507
:100BE0008130910509F43EC029853A8522303105CE
:100BF0002CF489859A85009771F028C229853A8559
:100C00002230310509F455C089859A8583309105D4
:100C100009F476C01BC2AAE3B0E0EAE3F0E0808109
:100C2000482F8A81282F30E081E090E002C0880FB1
:100C3000991F2A95E2F7842B8C93ABE3B0E0EBE3AA
:100C4000F0E08081482F8A81282F30E081E090E019
:100C5000022E02C0880F991F0A94E2F78095842320
:100C60008C93F4C1A7E3B0E0E7E3F0E08081482F84
:100C70008A81282F30E081E090E002C0880F991F20
:100C80002A95E2F7842B8C93A8E3B0E0E8E3F0E048
:100C90008081482F8A81282F30E081E090E0022E69
:100CA00002C0880F991F0A94E2F7809584238C93E1
:100CB000CDC1A4E3B0E0E4E3F0E08081482F8A8175
:100CC000282F30E081E090E002C0880F991F2A951C
:100CD000E2F7842B8C93A5E3B0E0E5E3F0E08081BC
:100CE000482F8A81282F30E081E090E0022E02C058
:100CF000880F991F0A94E2F7809584238C93A6C1EC
:100D0000A1E3B0E0E1E3F0E08081482F8A81282F61
:100D100030E081E090E002C0880F991F2A95E2F749
:100D2000842B8C93A2E3B0E0E2E3F0E08081482FD3
:100D30008A81282F30E081E090E0022E02C0880FE7
:100D4000991F0A94E2F7809584238C937FC189814F
:100D5000282F30E038872F838F8198858130910547
:100D600009F43FC02F813885223031052CF48F8162
:100D70009885009771F06AC12F813885223031053E
:100D800009F457C08F8198858330910509F479C0A3
:100D90005DC1AAE3B0E0EAE3F0E08081482F8A81F8
:100DA000282F30E081E090E002C0880F991F2A953B
:100DB000E2F7809584238C93ABE3B0E0EBE3F0E0C3
:100DC0008081482F8A81282F30E081E090E0022E38
:100DD00002C0880F991F0A94E2F7809584238C93B0
:100DE00035C1A7E3B0E0E7E3F0E08081482F8A81D6
:100DF000282F30E081E090E002C0880F991F2A95EB
:100E0000E2F7809584238C93A8E3B0E0E8E3F0E078
:100E10008081482F8A81282F30E081E090E0022EE7
:100E200002C0880F991F0A94E2F7809584238C935F
:100E30000DC1A4E3B0E0E4E3F0E08081482F8A81B3
:100E4000282F30E081E090E002C0880F991F2A959A
:100E5000E2F7809584238C93A5E3B0E0E5E3F0E02E
:100E60008081482F8A81282F30E081E090E0022E97
:100E700002C0880F991F0A94E2F7809584238C930F
:100E8000E5C0A1E3B0E0E1E3F0E08081482F8A8192
:100E9000282F30E081E090E002C0880F991F2A954A
:100EA000E2F7809584238C93A2E3B0E0E2E3F0E0E4
:100EB0008081482F8A81282F30E081E090E0022E47
:100EC00002C0880F991F0A94E2F7809584238C93BF
:100ED000BDC08981282F30E03E832D838D819E8186
:100EE0008130910509F43EC02D813E8122303105CB
:100EF0002CF48D819E81009771F0A8C02D813E81D8
:100F00002230310509F455C08D819E8183309105D1
:100F100009F476C09BC0AAE3B0E0EAE3F0E0808188
:100F2000482F8A81282F30E081E090E002C0880FAE
:100F3000991F2A95E2F7809584238C93ABE3B0E068
:100F4000EBE3F0E08081482F8A81282F30E081E0B8
:100F500090E0022E02C0880F991F0A94E2F7842BBA
:100F60008C9374C0A7E3B0E0E7E3F0E08081482F02
:100F70008A81282F30E081E090E002C0880F991F1D
:100F80002A95E2F7809584238C93A8E3B0E0E8E308
:100F9000F0E08081482F8A81282F30E081E090E0C6
:100FA000022E02C0880F991F0A94E2F7842B8C93BB
:100FB0004DC0A4E3B0E0E4E3F0E08081482F8A81F3
:100FC000282F30E081E090E002C0880F991F2A9519
:100FD000E2F7809584238C93A5E3B0E0E5E3F0E0AD
:100FE0008081482F8A81282F30E081E090E0022E16
:100FF00002C0880F991F0A94E2F7842B8C9326C0B5
:10100000A1E3B0E0E1E3F0E08081482F8A81282F5E
:1010100030E081E090E002C0880F991F2A95E2F746
:10102000809584238C93A2E3B0E0E2E3F0E080813A
:10103000482F8A81282F30E081E090E0022E02C004
:10104000880F991F0A94E2F7842B8C932C960FB685
:10105000F894DEBF0FBECDBFCF91DF910895DF932F
:10106000CF93CDB7DEB728970FB6F894DEBF0FBE8B
:10107000CDBF8B836C838B8187708A838B818695B0
:101080008695869589838C81813009F06FC089812E
:10109000282F30E038872F838F8198858130910504
:1010A00049F12F813885223031052CF48F819885C4
:1010B000009761F0CEC02F8138852230310571F163
:1010C0008F81988583309105E9F1C3C0ABE3B0E02F
:1010D000EBE3F0E08081482F8A81282F30E081E027
:1010E00090E0022E02C0880F991F0A94E2F7842B29
:1010F0008C93AFC0A8E3B0E0E8E3F0E08081482F34
:101100008A81282F30E081E090E0022E02C0880F13
:10111000991F0A94E2F7842B8C939BC0A5E3B0E05F
:10112000E5E3F0E08081482F8A81282F30E081E0DC
:1011300090E0022E02C0880F991F0A94E2F7842BD8
:101140008C9387C0A2E3B0E0E2E3F0E08081482F17
:101150008A81282F30E081E090E0022E02C0880FC3
:10116000991F0A94E2F7842B8C9373C08981282FEE
:1011700030E03E832D838D819E818130910559F130
:101180002D813E81223031052CF48D819E81009786
:1011900069F05FC02D813E812230310589F18D815A
:1011A0009E818330910509F440C053C0ABE3B0E0A9
:1011B000EBE3F0E08081482F8A81282F30E081E046
:1011C00090E0022E02C0880F991F0A94E2F78095E2
:1011D00084238C933EC0A8E3B0E0E8E3F0E0808194
:1011E000482F8A81282F30E081E090E0022E02C053
:1011F000880F991F0A94E2F7809584238C9329C065
:10120000A5E3B0E0E5E3F0E08081482F8A81282F54
:1012100030E081E090E0022E02C0880F991F0A940E
:10122000E2F7809584238C9314C0A2E3B0E0E2E35C
:10123000F0E08081482F8A81282F30E081E090E023
:10124000022E02C0880F991F0A94E2F7809584232A
:101250008C9328960FB6F894DEBF0FBECDBFCF910A
:10126000DF910895DF93CF9300D000D000D0CDB7A9
:10127000DEB78C838C8187708B838C818695869575
:1012800086958A8319828A81282F30E03E832D83B8
:101290004D815E814130510541F18D819E818230C9
:1012A000910534F42D813E812115310561F052C044
:1012B0004D815E814230510551F18D819E81833097
:1012C0009105B9F147C0E9E3F0E08081282F30E0D3
:1012D0008B81882F90E0A90102C0559547958A958A
:1012E000E2F7CA018170898335C0E6E3F0E08081CE
:1012F000282F30E08B81882F90E0A90102C05595FE
:1013000047958A95E2F7CA018170898323C0E3E398
:10131000F0E08081282F30E08B81882F90E0A901B8
:1013200002C0559547958A95E2F7CA018170898375
:1013300011C0E0E3F0E08081282F30E08B81882F1E
:1013400090E0A90102C0559547958A95E2F7CA0138
:1013500081708983898126960FB6F894DEBF0FBE0F
:10136000CDBFCF91DF910895DF93CF9300D000D010
:101370000F92CDB7DEB78B838B8187708A838B8189
:1013800086958695869589838981282F30E03D83CF
:101390002C838C819D818130910549F12C813D8187
:1013A000223031052CF48C819D81009761F05AC068
:1013B0002C813D812230310571F18C819D818330FA
:1013C0009105E9F14FC0ABE3B0E0EBE3F0E08081E1
:1013D000482F8A81282F30E081E090E0022E02C061
:1013E000880F991F0A94E2F784278C933BC0A8E3E7
:1013F000B0E0E8E3F0E08081482F8A81282F30E0D8
:1014000081E090E0022E02C0880F991F0A94E2F753
:1014100084278C9327C0A5E3B0E0E5E3F0E080816A
:10142000482F8A81282F30E081E090E0022E02C010
:10143000880F991F0A94E2F784278C9313C0A2E3C4
:10144000B0E0E2E3F0E08081482F8A81282F30E08D
:1014500081E090E0022E02C0880F991F0A94E2F703
:1014600084278C930F900F900F900F900F90CF9137
:10147000DF910895DF93CF9300D000D0CDB7DEB7D2
:1014800089836A838981282F30E03C832B838B8179
:101490009C8181309105D1F02B813C812230310536
:1014A0002CF48B819C81009761F01EC02B813C81C4
:1014B0002230310581F08B819C818330910581F050
:1014C00013C0EBE3F0E08A8180830EC0E8E3F0E034
:1014D0008A81808309C0E5E3F0E08A81808304C0CB
:1014E000E2E3F0E08A8180830F900F900F900F90DD
:1014F000CF91DF910895DF93CF9300D000D0CDB787
:10150000DEB78A8319828A81282F30E03C832B83BF
:101510008B819C8181309105D1F02B813C812230DF
:1015200031052CF48B819C81009761F01EC02B81CA
:101530003C812230310581F08B819C818330910583
:1015400081F013C0E9E3F0E0808189830EC0E6E317
:10155000F0E08081898309C0E3E3F0E08081898342
:1015600004C0E0E3F0E08081898389810F900F90CF
:101570000F900F90CF91DF910895DF93CF93CDB768
:10158000DEB7AFE5B0E0EFE5F0E0808180688C93F6
:10159000CF91DF910895DF93CF93CDB7DEB7AFE55D
:1015A000B0E0EFE5F0E080818F778C93CF91DF9111
:1015B0000895DF93CF93CDB7DEB7E9970FB6F894D0
:1015C000DEBF0FBECDBF89AF8CE160E00E942F0867
:1015D00089AD982F991F9927991F83E1692F0E9440
:1015E0002F0889AD8295869586958370982F917086
:1015F00082E1692F0E942F0889AD829586958770B8
:10160000982F917081E1692F0E942F0889AD8295F2
:101610008F70982F917080E1692F0E942F088EE1C2
:1016200061E00E942F0880E090E0A0E8BFE38DAB6E
:101630009EABAFABB8AF6DA97EA98FA998AD20E0E6
:1016400030E04AEF54E40E941F02DC01CB0189AB79
:101650009AABABABBCAB69A97AA98BA99CA920E0DA
:1016600030E040E85FE30E94790388232CF481E0B6
:1016700090E098AB8FA73FC069A97AA98BA99CA9D4
:1016800020E03FEF4FE757E40E94190318164CF58E
:101690006DA97EA98FA998AD20E030E040E251E429
:1016A0000E941F02DC01CB01BC01CD010E94490058
:1016B000DC01CB0198AB8FA70FC088EC90E09EA710
:1016C0008DA78DA59EA50197F1F79EA78DA78FA544
:1016D00098A9019798AB8FA78FA598A9009769F74C
:1016E00014C069A97AA98BA99CA90E944900DC01B0
:1016F000CB0198AB8FA78FA598A99CA78BA78BA58B
:101700009CA50197F1F79CA78BA78EE160E00E9452
:101710002F0880E090E0A0E8BFE38FA398A7A9A7D7
:10172000BAA76FA178A589A59AA520E030E04AEF75
:1017300054E40E941F02DC01CB018BA39CA3ADA348
:10174000BEA36BA17CA18DA19EA120E030E040E86A
:101750005FE30E94790388232CF481E090E09AA350
:1017600089A33FC06BA17CA18DA19EA120E03FEF8A
:101770004FE757E40E94190318164CF56FA178A59E
:1017800089A59AA520E030E040E251E40E941F02C2
:10179000DC01CB01BC01CD010E944900DC01CB0181
:1017A0009AA389A30FC088EC90E098A38F8F8F8DA8
:1017B00098A10197F1F798A38F8F89A19AA101971A
:1017C0009AA389A389A19AA1009769F714C06BA174
:1017D0007CA18DA19EA10E944900DC01CB019AA3AE
:1017E00089A389A19AA19E8F8D8F8D8D9E8D019742
:1017F000F1F79E8F8D8F89AD869586958695982F6A
:10180000917083E1692F0E942F0889AD8695869596
:10181000982F917082E1692F0E942F0889AD8695DB
:10182000982F917081E1692F0E942F0889AD982F20
:10183000917080E1692F0E942F088EE161E00E9483
:101840002F0880E090E0A0E8BFE3898F9A8FAB8FEC
:10185000BC8F698D7A8D8B8D9C8D20E030E04AEFB6
:1018600054E40E941F02DC01CB018D8B9E8BAF8B59
:10187000B88F6D897E898F89988D20E030E040E8AF
:101880005FE30E94790388232CF481E090E09C8B35
:101890008B8B3FC06D897E898F89988D20E03FEFCB
:1018A0004FE757E40E94190318164CF5698D7A8D9D
:1018B0008B8D9C8D20E030E040E251E40E941F02BD
:1018C000DC01CB01BC01CD010E944900DC01CB0150
:1018D0009C8B8B8B0FC088EC90E09A8B898B8989CD
:1018E0009A890197F1F79A8B898B8B899C8901974B
:1018F0009C8B8B8B8B899C89009769F714C06D89B1
:101900007E898F89988D0E944900DC01CB019C8BD8
:101910008B8B8B899C89988B8F878F859889019772
:10192000F1F7988B8F878EE160E00E942F0880E0AE
:1019300090E0A0E8BFE38B879C87AD87BE876B856F
:101940007C858D859E8520E030E04AEF54E40E943E
:101950001F02DC01CB018F839887A987BA876F812B
:10196000788589859A8520E030E040E85FE30E9431
:10197000790388232CF481E090E09E838D833FC01F
:101980006F81788589859A8520E03FEF4FE757E49E
:101990000E94190318164CF56B857C858D859E85F4
:1019A00020E030E040E251E40E941F02DC01CB0164
:1019B000BC01CD010E944900DC01CB019E838D83D7
:1019C0000FC088EC90E09C838B838B819C81019776
:1019D000F1F79C838B838D819E8101979E838D83FC
:1019E0008D819E81009769F714C06F817885898504
:1019F0009A850E944900DC01CB019E838D838D81F5
:101A00009E819A83898389819A810197F1F79A83CC
:101A10008983E9960FB6F894DEBF0FBECDBFCF9194
:101A2000DF910895DF93CF93CDB7DEB7E9970FB677
:101A3000F894DEBF0FBECDBF89AF8CE161E00E949C
:101A40002F0889AD982F991F9927991F83E1692F36
:101A50000E942F0889AD8295869586958370982F70
:101A6000917082E1692F0E942F0889AD8295869539
:101A70008770982F917081E1692F0E942F0889AD9E
:101A800082958F70982F917080E1692F0E942F08A6
:101A90008EE161E00E942F0880E090E0A0E8BFE3C3
:101AA0008DAB9EABAFABB8AF6DA97EA98FA998AD3A
:101AB00020E030E04AEF54E40E941F02DC01CB0139
:101AC00089AB9AABABABBCAB69A97AA98BA99CA932
:101AD00020E030E040E85FE30E94790388232CF4A3
:101AE00081E090E098AB8FA73FC069A97AA98BA944
:101AF0009CA920E03FEF4FE757E40E941903181616
:101B00004CF56DA97EA98FA998AD20E030E040E2A8
:101B100051E40E941F02DC01CB01BC01CD010E94F7
:101B20004900DC01CB0198AB8FA70FC088EC90E097
:101B30009EA78DA78DA59EA50197F1F79EA78DA7BE
:101B40008FA598A9019798AB8FA78FA598A9009703
:101B500069F714C069A97AA98BA99CA90E944900B8
:101B6000DC01CB0198AB8FA78FA598A99CA78BA769
:101B70008BA59CA50197F1F79CA78BA78EE160E050
:101B80000E942F0880E090E0A0E8BFE38FA398A711
:101B9000A9A7BAA76FA178A589A59AA520E030E0EA
:101BA0004AEF54E40E941F02DC01CB018BA39CA3EB
:101BB000ADA3BEA36BA17CA18DA19EA120E030E0CE
:101BC00040E85FE30E94790388232CF481E090E0F1
:101BD0009AA389A33FC06BA17CA18DA19EA120E007
:101BE0003FEF4FE757E40E94190318164CF56FA119
:101BF00078A589A59AA520E030E040E251E40E9452
:101C00001F02DC01CB01BC01CD010E944900DC01B7
:101C1000CB019AA389A30FC088EC90E098A38F8F83
:101C20008F8D98A10197F1F798A38F8F89A19AA121
:101C300001979AA389A389A19AA1009769F714C073
:101C40006BA17CA18DA19EA10E944900DC01CB016A
:101C50009AA389A389A19AA19E8F8D8F8D8D9E8D28
:101C60000197F1F79E8F8D8F89AD86958695869524
:101C7000982F917083E1692F0E942F0889AD869576
:101C80008695982F917082E1692F0E942F0889AD67
:101C90008695982F917081E1692F0E942F0889AD58
:101CA000982F917080E1692F0E942F088EE161E0EA
:101CB0000E942F0880E090E0A0E8BFE3898F9A8F10
:101CC000AB8FBC8F698D7A8D8B8D9C8D20E030E041
:101CD0004AEF54E40E941F02DC01CB018D8B9E8BE6
:101CE000AF8BB88F6D897E898F89988D20E030E029
:101CF00040E85FE30E94790388232CF481E090E0C0
:101D00009C8B8B8B3FC06D897E898F89988D20E05D
:101D10003FEF4FE757E40E94190318164CF5698D01
:101D20007A8D8B8D9C8D20E030E040E251E40E9462
:101D30001F02DC01CB01BC01CD010E944900DC0186
:101D4000CB019C8B8B8B0FC088EC90E09A8B898B9E
:101D500089899A890197F1F79A8B898B8B899C895C
:101D600001979C8B8B8B8B899C89009769F714C09A
:101D70006D897E898F89988D0E944900DC01CB0195
:101D80009C8B8B8B8B899C89988B8F878F8598896F
:101D90000197F1F7988B8F878EE160E00E942F0802
:101DA00080E090E0A0E8BFE38B879C87AD87BE878B
:101DB0006B857C858D859E8520E030E04AEF54E47C
:101DC0000E941F02DC01CB018F839887A987BA8705
:101DD0006F81788589859A8520E030E040E85FE36F
:101DE0000E94790388232CF481E090E09E838D8308
:101DF0003FC06F81788589859A8520E03FEF4FE766
:101E000057E40E94190318164CF56B857C858D8567
:101E10009E8520E030E040E251E40E941F02DC0198
:101E2000CB01BC01CD010E944900DC01CB019E83A6
:101E30008D830FC088EC90E09C838B838B819C8189
:101E40000197F1F79C838B838D819E8101979E83FF
:101E50008D838D819E81009769F714C06F8178858D
:101E600089859A850E944900DC01CB019E838D8380
:101E70008D819E819A83898389819A810197F1F767
:101E80009A838983E9960FB6F894DEBF0FBECDBF63
:101E9000CF91DF9108950F931F93DF93CF93CDB729
:101EA000DEB7C455D0400FB6F894DEBF0FBECDBF2D
:101EB000FE01EF5AFF4F80E090E0A8E4B2E4808397
:101EC0009183A283B3838E01035B1F4FFE01EF5A00
:101ED000FF4F608171818281938120E030E04AEF81
:101EE00054E40E941F02DC01CB01F801808391833E
:101EF000A283B383FE01E35BFF4F60817181828126
:101F0000938120E030E040E85FE30E94790388237A
:101F100044F4FE01E55BFF4F81E090E09183808314
:101F200064C0FE01E35BFF4F608171818281938118
:101F300020E03FEF4FE757E40E94190318160CF01A
:101F400043C0FE01EF5AFF4F60817181828193810E
:101F500020E030E040E251E40E941F02DC01CB01AE
:101F60008E01055B1F4FBC01CD010E944900DC01C1
:101F7000CB01F801918380831FC0FE01E75BFF4F17
:101F800088EC90E091838083FE01E75BFF4F8081C6
:101F900091810197F1F7FE01E75BFF4F9183808309
:101FA000DE01A55BBF4FFE01E55BFF4F80819181A4
:101FB000019711969C938E93FE01E55BFF4F808104
:101FC00091810097D1F627C08E01055B1F4FFE015E
:101FD000E35BFF4F60817181828193810E944900A0
:101FE000DC01CB01F80191838083DE01A95BBF4F47
:101FF000FE01E55BFF4F808191818D939C93FE01F3
:10200000E95BFF4F808191810197F1F7FE01E95B68
:10201000FF4F9183808382E00E94D90AFE01ED5B2D
:10202000FF4F80E090E0A0E8BFE380839183A2832C
:10203000B3838E01015C1F4FFE01ED5BFF4F60819A
:1020400071818281938120E030E04AEF54E40E9464
:102050001F02DC01CB01F80180839183A283B3834B
:10206000FE01FF96608171818281938120E030E0E2
:1020700040E85FE30E94790388232CF481E090E03C
:102080009EAF8DAF46C0FE01FF9660817181828157
:10209000938120E03FEF4FE757E40E9419031816A1
:1020A00064F5FE01ED5BFF4F608171818281938158
:1020B00020E030E040E251E40E941F02DC01CB014D
:1020C000BC01CD010E944900DC01CB019EAF8DAF68
:1020D0000FC088EC90E09CAF8BAF8BAD9CAD0197AF
:1020E000F1F79CAF8BAF8DAD9EAD01979EAF8DAFDD
:1020F0008DAD9EAD009769F716C0FE01FF96608119
:102100007181828193810E944900DC01CB019EAFE5
:102110008DAF8DAD9EAD9AAF89AF89AD9AAD019768
:10212000F1F79AAF89AF88E20E94D90A80E090E087
:10213000A0E8BFE38DAB9EABAFABB8AF6DA97EA9F6
:102140008FA998AD20E030E04AEF54E40E941F02CE
:10215000DC01CB0189AB9AABABABBCAB69A97AA96B
:102160008BA99CA920E030E040E85FE30E9479035E
:1021700088232CF481E090E098AB8FA73FC069A939
:102180007AA98BA99CA920E03FEF4FE757E40E9472
:10219000190318164CF56DA97EA98FA998AD20E0FA
:1021A00030E040E251E40E941F02DC01CB01BC019F
:1021B000CD010E944900DC01CB0198AB8FA70FC075
:1021C00088EC90E09EA78DA78DA59EA50197F1F7BD
:1021D0009EA78DA78FA598A9019798AB8FA78FA5CC
:1021E00098A9009769F714C069A97AA98BA99CA935
:1021F0000E944900DC01CB0198AB8FA78FA598A95D
:102200009CA78BA78BA59CA50197F1F79CA78BA7F3
:102210008CE00E94D90A80E090E0A0E8BFE38FA3A1
:1022200098A7A9A7BAA76FA178A589A59AA520E024
:1022300030E04AEF54E40E941F02DC01CB018BA383
:102240009CA3ADA3BEA36BA17CA18DA19EA120E008
:1022500030E040E85FE30E94790388232CF481E0BA
:1022600090E09AA389A33FC06BA17CA18DA19EA100
:1022700020E03FEF4FE757E40E94190318164CF592
:102280006FA178A589A59AA520E030E040E251E44D
:102290000E941F02DC01CB01BC01CD010E9449005C
:1022A000DC01CB019AA389A30FC088EC90E098A32E
:1022B0008F8F8F8D98A10197F1F798A38F8F89A1A8
:1022C0009AA101979AA389A389A19AA1009769F776
:1022D00014C06BA17CA18DA19EA10E944900DC01CC
:1022E000CB019AA389A389A19AA19E8F8D8F8D8DF1
:1022F0009E8D0197F1F79E8F8D8F81E00E94D90A04
:1023000080E090E0A0E0B0E4898F9A8FAB8FBC8F23
:10231000698D7A8D8B8D9C8D20E030E04AEF54E4FE
:102320000E941F02DC01CB018D8B9E8BAF8BB88F7F
:102330006D897E898F89988D20E030E040E85FE3E9
:102340000E94790388232CF481E090E09C8B8B8B96
:102350003FC06D897E898F89988D20E03FEF4FE7E0
:1023600057E40E94190318164CF5698D7A8D8B8DF0
:102370009C8D20E030E040E251E40E941F02DC012D
:10238000CB01BC01CD010E944900DC01CB019C8B3B
:102390008B8B0FC088EC90E09A8B898B89899A8906
:1023A0000197F1F79A8B898B8B899C8901979C8B7C
:1023B0008B8B8B899C89009769F714C06D897E8906
:1023C0008F89988D0E944900DC01CB019C8B8B8BFF
:1023D0008B899C89988B8F878F8598890197F1F7D6
:1023E000988B8F8786E00E94D90A80E090E0A0E871
:1023F000BFE38B879C87AD87BE876B857C858D858A
:102400009E8520E030E04AEF54E40E941F02DC0188
:10241000CB018F839887A987BA876F817885898553
:102420009A8520E030E040E85FE30E94790388234A
:102430002CF481E090E09E838D833FC06F8178858E
:1024400089859A8520E03FEF4FE757E40E94190302
:1024500018164CF56B857C858D859E8520E030E0D7
:1024600040E251E40E941F02DC01CB01BC01CD011E
:102470000E944900DC01CB019E838D830FC088EC54
:1024800090E09C838B838B819C810197F1F79C83E7
:102490008B838D819E8101979E838D838D819E810B
:1024A000009769F714C06F81788589859A850E94A5
:1024B0004900DC01CB019E838D838D819E819A83AF
:1024C000898389819A810197F1F79A838983CC5A0C
:1024D000DF4F0FB6F894DEBF0FBECDBFCF91DF91B7
:1024E0001F910F910895DF93CF93CDB7DEB781E0B1
:1024F0000E94D90ACF91DF910895DF93CF9300D046
:10250000CDB7DEB789836A838981882329F48A81DC
:1025100080580E94D90A17C08981813029F48A81A4
:1025200080540E94D90A0FC08981823029F48A819F
:102530008C560E94D90A07C08981833021F48A8190
:102540008C520E94D90A0F900F90CF91DF9108957D
:10255000DF93CF930F92CDB7DEB7898389810E9435
:10256000120D0F90CF91DF910895DF93CF9300D09C
:102570000F92CDB7DEB79B838A8319820EC0898103
:10258000282F30E08A819B81FC01E20FF31F8081BC
:102590000E94A81289818F5F89838981282F30E06A
:1025A0008A819B81FC01E20FF31F8081882339F728
:1025B0000F900F900F90CF91DF9108950F931F937D
:1025C000DF93CF93CDB7DEB766970FB6F894DEBF33
:1025D0000FBECDBF6B8B7C8B8D8B9E8B1A8219822D
:1025E0008B899C89AD89BE890097A105B10521F42D
:1025F00080E30E94A81267C08B899C89AD89BE893F
:10260000BB230CF041C08DE20E94A8128B899C89EB
:10261000AD89BE89B095A095909581959F4FAF4F9C
:10262000BF4F8B8B9C8BAD8BBE8B2EC08A81082FAE
:1026300010E08B899C89AD89BE892AE030E040E0BA
:1026400050E0BC01CD010E94E418DC01CB01282F31
:10265000205DCE010396FC01E00FF11F20838A81EB
:102660008F5F8A838B899C89AD89BE892AE030E09F
:1026700040E050E0BC01CD010E94E418DA01C9013C
:102680008B8B9C8BAD8BBE8B8B899C89AD89BE89D6
:102690000097A105B10551F68A818150898310C048
:1026A0008981282F332727FD3095CE010396FC0121
:1026B000E20FF31F80810E94A812898181508983D3
:1026C000898188236CF766960FB6F894DEBF0FBE3B
:1026D000CDBFCF91DF911F910F910895DF93CF93DD
:1026E00000D0CDB7DEB79A83898389819A8120E1B2
:1026F00037E2B9010E94D01828EE33E0B9010E94F8
:10270000D018CB01805D0E94A81289819A8128EEA1
:1027100033E0B9010E94D01824E630E0B9010E94EC
:10272000D018CB01805D0E94A81289819A8124E68D
:1027300030E0B9010E94D0182AE030E0B9010E94CF
:10274000D018CB01805D0E94A81289819A812AE06D
:1027500030E0B9010E94D018805D0E94A8120F904D
:102760000F90CF91DF910895DF93CF9300D0CDB735
:10277000DEB78A8387E089831CC08A81282F30E0F6
:102780008981992787FD9095A90102C055954795A4
:102790008A95E2F7CA0181709070882321F081E365
:1027A0000E94A81203C080E30E94A8128981815070
:1027B0008983898188230CF70F900F90CF91DF9147
:1027C0000895DF93CF9300D00F92CDB7DEB78B8300
:1027D0008B818F708A838B8182958F7089838981A9
:1027E0008A3028F48981805D0E94A81204C0898102
:1027F000895C0E94A8128A818A3028F48A81805DCF
:102800000E94A81204C08A81895C0E94A8120F90BD
:102810000F900F90CF91DF910895DF93CF9300D069
:1028200000D0CDB7DEB789836A835C834B8389810F
:102830006A810E947D128B819C810E94B5120F904B
:102840000F900F900F90CF91DF910895DF93CF936A
:1028500000D000D0CDB7DEB78A836B834C838A81EA
:102860006B810E947D12198206C080E20E94A8122C
:1028700089818F5F898399818C819817B0F30F903C
:102880000F900F900F90CF91DF910895DF93CF932A
:1028900000D000D0CDB7DEB78A837C836B838A817A
:1028A000882F90E00896880F991F880F991F880F2E
:1028B000991F0E94D90A19820EC08981282F30E001
:1028C0008B819C81FC01E20FF31F80810E94A81282
:1028D00089818F5F89838981883078F380E80E94BD
:1028E000D90A0F900F900F900F90CF91DF9108951C
:1028F000DF93CF93CDB7DEB72E970FB6F894DEBF38
:102900000FBECDBF0E94A3050E944B0F80E090E058
:10291000AAEFB3E48B879C87AD87BE876B857C85E8
:102920008D859E8520E030E04AEF54E40E941F022E
:10293000DC01CB018F839887A987BA876F8178855F
:1029400089859A8520E030E040E85FE30E947903C2
:1029500088232CF481E090E09E838D833FC06F81BB
:10296000788589859A8520E03FEF4FE757E40E94FC
:10297000190318164CF56B857C858D859E8520E0A6
:1029800030E040E251E40E941F02DC01CB01BC01B7
:10299000CD010E944900DC01CB019E838D830FC0D5
:1029A00088EC90E09C838B838B819C810197F1F76D
:1029B0009C838B838D819E8101979E838D838D81E6
:1029C0009E81009769F714C06F81788589859A8503
:1029D0000E944900DC01CB019E838D838D819E8105
:1029E0009A83898389819A810197F1F79A838983F0
:1029F0000E94131580E895E20E94A2160E94161705
:102A00000E94651780938C0080918C000E94A81210
:102A100084E060E00E942F0880918C000E94AD1538
:102A200080938D00EDCFDF93CF93CDB7DEB7ADE2CE
:102A3000B0E0EDE2F0E0808180618C93ADE2B0E047
:102A4000EDE2F0E08081877F8C93ADE2B0E0EDE2D3
:102A5000F0E080818B7F8C93ADE2B0E0EDE2F0E0BE
:102A6000808180628C93ADE2B0E0EDE2F0E08081A5
:102A70008E7F8C93ADE2B0E0EDE2F0E080818D7F5F
:102A80008C93ADE2B0E0EDE2F0E080818E7F8C933C
:102A9000ADE2B0E0EDE2F0E0808180688C93AEE2E0
:102AA000B0E0EEE2F0E080818E7F8C93ADE2B0E0AA
:102AB000EDE2F0E0808180648C93CF91DF91089506
:102AC000DF93CF93CDB7DEB7ADE2B0E0EDE2F0E05B
:102AD00080818F7E8C93ADE2B0E0EDE2F0E080810A
:102AE000877F8C93ADE2B0E0EDE2F0E080818B7FF8
:102AF0008C93ADE2B0E0EDE2F0E0808180628C93F7
:102B0000ADE2B0E0EDE2F0E080818E7F8C93ADE24B
:102B1000B0E0EDE2F0E080818D7F8C93ADE2B0E03B
:102B2000EDE2F0E080818E7F8C93ADE2B0E0EDE2EB
:102B3000F0E0808180688C93AEE2B0E0EEE2F0E0FD
:102B400080818E7F8C93ADE2B0E0EDE2F0E0808199
:102B500080648C93CF91DF910895DF93CF930F9290
:102B6000CDB7DEB78983EFE2F0E089818083EEE2C2
:102B7000F0E080818823DCF7EFE2F0E080810F90C5
:102B8000CF91DF910895DF93CF930F92CDB7DEB74A
:102B90008983EFE2F0E089818083EEE2F0E08081DA
:102BA0008823DCF7EFE2F0E080810F90CF91DF9196
:102BB0000895DF93CF93CDB7DEB7EFE2F0E08081E9
:102BC000CF91DF910895DF93CF9300D00F92CDB7CF
:102BD000DEB79B838A8319820EC08981282F30E05B
:102BE0008A819B81FC01E20FF31F80810E94AD1559
:102BF00089818F5F89838981282F30E08A819B8139
:102C0000FC01E20FF31F8081882339F70F900F90AA
:102C10000F90CF91DF9108950F931F93DF93CF9380
:102C200000D00F92CDB7DEB79B838A83198289814A
:102C3000282F30E08A819B818C01020F131F0E9494
:102C4000D915F80180830FC089818F5F89838981BD
:102C5000282F30E08A819B818C01020F131F0E9474
:102C6000D915F80180838981282F30E08A819B81E2
:102C7000FC01E20FF31F8081833231F78981282F15
:102C800030E08A819B81FC01E20FF31F10820F90DC
:102C90000F900F90CF91DF911F910F9108951F9288
:102CA0000F920FB60F9211242F933F934F935F9380
:102CB0006F937F938F939F93AF93BF93EF93FF9304
:102CC000DF93CF93CDB7DEB78091880090918900D4
:102CD000009729F0E0918800F09189000995CF9143
:102CE000DF91FF91EF91BF91AF919F918F917F9174
:102CF0006F915F914F913F912F910F900FBE0F9069
:102D00001F901895DF93CF930F92CDB7DEB78983CD
:102D1000EFE2F0E0898180830F90CF91DF910895F9
:102D2000DF93CF9300D0CDB7DEB79A8389838981B3
:102D30009A8190938900809388000F900F90CF9193
:102D4000DF910895DF93CF9300D0CDB7DEB79A839C
:102D50008983A0E4B0E0E0E4F0E0808180688C93B7
:102D6000E9E2F0E083E38083A0E4B0E0E0E4F0E0B7
:102D700080818F778C93A0E4B0E0E0E4F0E0808184
:102D800082608C93A0E4B0E0E0E4F0E080818460B5
:102D90008C93AAE2B0E0EAE2F0E080818B7F8C9332
:102DA000A0E4B0E0E0E4F0E0808180648C93EAE2AB
:102DB000F0E08081869586958695882F90E08170D9
:102DC0009070882339F0A0E4B0E0E0E4F0E0808186
:102DD0008E7F8C93EAE2F0E0808182958F70882F5D
:102DE00090E081709070882339F0A0E4B0E0E0E4D6
:102DF000F0E080818E7F8C93A0E4B0E0E0E4F0E02E
:102E000080818F7E8C93A0E4B0E0E0E4F0E08081EC
:102E10008F7D8C93A0E4B0E0E0E4F0E08081877FD8
:102E20008C930F900F90CF91DF910895DF93CF9304
:102E3000CDB7DEB7AAE2B0E0EAE2F0E080818061DF
:102E40008C93CF91DF910895DF93CF93CDB7DEB709
:102E5000AAE2B0E0EAE2F0E080818F7E8C93CF912D
:102E6000DF910895DF93CF93CDB7DEB7AAE2B0E04C
:102E7000EAE2F0E0808188608C93CF91DF91089541
:102E8000DF93CF93CDB7DEB7AAE2B0E0EAE2F0E09D
:102E90008081877F8C93CF91DF910895DF93CF93CB
:102EA0000F92CDB7DEB78983ECE2F0E089818083B1
:102EB000EBE2F0E08081882F90E0807490700097C2
:102EC000B9F30F90CF91DF910895DF93CF93CDB7F2
:102ED000DEB7EBE2F0E080818823DCF7ECE2F0E0A3
:102EE0008081CF91DF910895DF93CF9300D0CDB74C
:102EF000DEB79A8389830AC0E981FA8180810E94C2
:102F00004E1789819A8101969A83898389819A8152
:102F1000009791F70F900F90CF91DF9108950F9345
:102F20001F93DF93CF9300D00F92CDB7DEB79B8373
:102F30008A8319828981282F30E08A819B818C01C4
:102F4000020F131F0E946517F80180830FC089814B
:102F50008F5F89838981282F30E08A819B818C0152
:102F6000020F131F0E946517F80180838981282FA3
:102F700030E08A819B81FC01E20FF31F8081833264
:102F800031F78981282F30E08A819B81FC01E20F93
:102F9000F31F10820F900F900F90CF91DF911F9130
:102FA0000F910895DF93CF9300D0CDB7DEB71A828B
:102FB0004CC0EAE3F0E08A81282F30E080E190E025
:102FC00002C0880F991F2A95E2F78083EBE3F0E0B7
:102FD0008A81282F30E080E190E0022E02C0880F25
:102FE000991F0A94E2F780958083198228C0E9E34B
:102FF000F0E08081282F30E08981882F90E0A901BE
:1030000002C0559547958A95E2F7CA018170907084
:10301000009791F48981882F90E0880F991F880F7D
:10302000991F982F8A81890F8F5F0E942A180F900D
:103030000F90CF91DF91089589818F5F8983898176
:103040008430A8F28A818F5F8A838A81843008F471
:10305000B0CFADCFDF93CF9300D000D0CDB7DEB7E8
:1030600089838981282F30E03C832B838B819C814D
:103070008830910509F470C02B813C8129303105DD
:103080005CF58B819C818430910509F459C02B81BA
:103090003C81253031059CF48B819C8182309105E7
:1030A00009F448C02B813C81233031050CF045C028
:1030B0008B819C818130910509F439C067C02B81D7
:1030C0003C812630310509F441C08B819C818730D9
:1030D00091050CF03EC037C02B813C812C3031056E
:1030E00009F446C08B819C818D3091055CF42B8165
:1030F0003C812A303105B1F18B819C818B30910567
:10310000A4F52DC02B813C812E303105B9F18B8186
:103110009C818E3091057CF12B813C812F303105D3
:1031200079F18B819C818031910569F12FC097E005
:103130009A832EC028E02A832BC039E03A8328C026
:1031400085E28A8325C094E09A8322C025E02A8301
:103150001FC036E03A831CC08AE28A8319C091E01E
:103160009A8316C022E02A8313C033E03A8310C04A
:103170008DE28A830DC09DE09A830AC01A8208C03E
:103180002DE32A8305C03BE23A8302C089818A830A
:103190008A810F900F900F900F90CF91DF9108953B
:1031A000AA1BBB1B51E107C0AA1FBB1FA617B7076D
:1031B00010F0A61BB70B881F991F5A95A9F7809589
:1031C0009095BC01CD01089597FB092E05260ED0E0
:1031D00057FD04D014D00AD0001C38F45095409507
:1031E000309521953F4F4F4F5F4F0895F6F79095DB
:1031F0008095709561957F4F8F4F9F4F0895A1E205
:103200001A2EAA1BBB1BFD010DC0AA1FBB1FEE1F60
:10321000FF1FA217B307E407F50720F0A21BB30BAB
:10322000E40BF50B661F771F881F991F1A9469F727
:1032300060957095809590959B01AC01BD01CF0183
:1032400008952F923F924F925F926F927F928F924A
:103250009F92AF92BF92CF92DF92EF92FF920F9325
:103260001F93CF93DF93CDB7DEB7CA1BDB0B0FB62F
:10327000F894DEBF0FBECDBF09942A8839884888EC
:103280005F846E847D848C849B84AA84B984C88482
:10329000DF80EE80FD800C811B81AA81B981CE0F79
:1032A000D11D0FB6F894DEBF0FBECDBFED0108955E
:0432B000F894FFCFC0
:1032B4000000000000000000020202020000000002
:1032C40000000000000002000000000000000000F8
:0832D4000200000200000002EC
:00000001FF
